{
  "transactions": [
    {
      "hash": "0x886548e08f1e98865df690a42d0df2545f4fa6de28a77ff1cbe5d62388e82702",
      "transactionType": "CREATE",
      "contractName": "MockUSDC",
      "contractAddress": "0x98346718c549ed525201fc583796ecf2eacc0ad5",
      "function": null,
      "arguments": null,
      "transaction": {
        "from": "0x28482b1279e442f49ee76351801232d58f341cb9",
        "gas": "0xb6528",
        "value": "0x0",
        "input": "0x60806040523461037457604080519081016001600160401b0381118282101761028a57604090815260098252684d6f636b205553444360b81b602083015280519081016001600160401b0381118282101761028a5760405260058152646d5553444360d81b602082015281516001600160401b03811161028a575f54600181811c9116801561036a575b602082101461026c57601f8111610308575b50602092601f82116001146102a957928192935f9261029e575b50508160011b915f199060031b1c1916175f555b80516001600160401b03811161028a57600154600181811c91168015610280575b602082101461026c57601f8111610209575b50602091601f82116001146101a9579181925f9261019e575b50508160011b915f199060031b1c1916176001555b600660ff196002541617600255610142600354610378565b600355335f52600460205260405f2061015b8154610378565b905560405164e8d4a5100081525f7fddf252ad1be2c89b69c2b068fc378daa952ba7f163c4a11628f55a4df523b3ef60203393a360405161071d908161039f8239f35b015190505f80610115565b601f1982169260015f52805f20915f5b8581106101f1575083600195106101d9575b505050811b0160015561012a565b01515f1960f88460031b161c191690555f80806101cb565b919260206001819286850151815501940192016101b9565b60015f527fb10e2d527612073b26eecdfd717e6a320cf44b4afac2b0732d9fcbe2b7fa0cf6601f830160051c81019160208410610262575b601f0160051c01905b81811061025757506100fc565b5f815560010161024a565b9091508190610241565b634e487b7160e01b5f52602260045260245ffd5b90607f16906100ea565b634e487b7160e01b5f52604160045260245ffd5b015190505f806100b5565b601f198216935f8052805f20915f5b8681106102f057508360019596106102d8575b505050811b015f556100c9565b01515f1960f88460031b161c191690555f80806102cb565b919260206001819286850151815501940192016102b8565b5f80527f290decd9548b62a8d60345a988386fc84ba6bc95484008f6362f93160ef3e563601f830160051c81019160208410610360575b601f0160051c01905b818110610355575061009b565b5f8155600101610348565b909150819061033f565b90607f1690610089565b5f80fd5b9064e8d4a51000820180921161038a57565b634e487b7160e01b5f52601160045260245ffdfe60806040526004361015610011575f80fd5b5f3560e01c806306fdde031461047d578063095ea7b31461040457806318160ddd146103e757806323b872dd14610305578063313ce567146102e557806340c10f19146102955780635048ec0c1461026e57806370a082311461023657806395d89b4114610118578063a9059cbb146100e65763dd62ed3e14610092575f80fd5b346100e25760403660031901126100e2576100ab610579565b6100b361058f565b6001600160a01b039182165f908152600560209081526040808320949093168252928352819020549051908152f35b5f80fd5b346100e25760403660031901126100e257602061010e610104610579565b60243590336105bf565b6040519015158152f35b346100e2575f3660031901126100e2576040515f6001548060011c9060018116801561022c575b602083108114610218578285529081156101fc57506001146101a6575b50819003601f01601f191681019067ffffffffffffffff821181831017610192576040829052819061018e908261054f565b0390f35b634e487b7160e01b5f52604160045260245ffd5b60015f9081529091507fb10e2d527612073b26eecdfd717e6a320cf44b4afac2b0732d9fcbe2b7fa0cf65b8282106101e65750602091508201018261015c565b60018160209254838588010152019101906101d1565b90506020925060ff191682840152151560051b8201018261015c565b634e487b7160e01b5f52602260045260245ffd5b91607f169161013f565b346100e25760203660031901126100e2576001600160a01b03610257610579565b165f526004602052602060405f2054604051908152f35b346100e25760403660031901126100e25761029361028a610579565b60243590610689565b005b346100e25760403660031901126100e2576102ae610579565b602435620f4240810290808204620f424014901517156102d15761029391610689565b634e487b7160e01b5f52601160045260245ffd5b346100e2575f3660031901126100e257602060ff60025416604051908152f35b346100e25760603660031901126100e25761031e610579565b61032661058f565b6001600160a01b0382165f81815260056020908152604080832033845290915290205460443593919060018101610365575b602061010e8686866105bf565b929093918284106103a2576020946103808461010e966105a5565b5f91825260058752604080832033845288529091205591939092508290610358565b60405162461bcd60e51b815260206004820152601d60248201527f45524332303a20696e73756666696369656e7420616c6c6f77616e63650000006044820152606490fd5b346100e2575f3660031901126100e2576020600354604051908152f35b346100e25760403660031901126100e25761041d610579565b335f8181526005602090815260408083206001600160a01b03909516808452948252918290206024359081905591519182527f8c5be1e5ebec7d5bd14f71427d1e84f3dd0314c0f7b2291e5b200ac8c7c3b92591a3602060405160018152f35b346100e2575f3660031901126100e2576040515f80548060011c90600181168015610545575b602083108114610218578285529081156101fc57506001146104f15750819003601f01601f191681019067ffffffffffffffff821181831017610192576040829052819061018e908261054f565b5f8080529091507f290decd9548b62a8d60345a988386fc84ba6bc95484008f6362f93160ef3e5635b82821061052f5750602091508201018261015c565b600181602092548385880101520191019061051a565b91607f16916104a3565b602060409281835280519182918282860152018484015e5f828201840152601f01601f1916010190565b600435906001600160a01b03821682036100e257565b602435906001600160a01b03821682036100e257565b919082039182116102d157565b919082018092116102d157565b60018060a01b031690815f5260046020528260405f2054106106445760207fddf252ad1be2c89b69c2b068fc378daa952ba7f163c4a11628f55a4df523b3ef91835f526004825260405f206106158682546105a5565b905560018060a01b031693845f526004825260405f206106368282546105b2565b9055604051908152a3600190565b60405162461bcd60e51b815260206004820152601b60248201527f45524332303a20696e73756666696369656e742062616c616e636500000000006044820152606490fd5b7fddf252ad1be2c89b69c2b068fc378daa952ba7f163c4a11628f55a4df523b3ef60205f926106ba856003546105b2565b60035560018060a01b03169384845260048252604084206106dc8282546105b2565b9055604051908152a356fea2646970667358221220bd2a6384f306fc5b5f489ae6295e07cf2e33acd7950d55f4e6fd3a13009be58564736f6c634300081a0033",
        "nonce": "0x60",
        "chainId": "0x14a34"
      },
      "additionalContracts": [],
      "isFixedGasLimit": false
    },
    {
      "hash": "0x87671ca686382735e6f2675796bc414e2119551ad37bca826b54698f046f8ed1",
      "transactionType": "CALL",
      "contractName": "MockUSDC",
      "contractAddress": "0x98346718c549ed525201fc583796ecf2eacc0ad5",
      "function": "mintWei(address,uint256)",
      "arguments": [
        "0x28482B1279E442f49eE76351801232D58f341CB9",
        "1000000000"
      ],
      "transaction": {
        "from": "0x28482b1279e442f49ee76351801232d58f341cb9",
        "to": "0x98346718c549ed525201fc583796ecf2eacc0ad5",
        "gas": "0xb741",
        "value": "0x0",
        "input": "0x5048ec0c00000000000000000000000028482b1279e442f49ee76351801232d58f341cb9000000000000000000000000000000000000000000000000000000003b9aca00",
        "nonce": "0x61",
        "chainId": "0x14a34"
      },
      "additionalContracts": [],
      "isFixedGasLimit": false
    }
  ],
  "receipts": [
    {
      "status": "0x1",
      "cumulativeGasUsed": "0xd43ce",
      "logs": [
        {
          "address": "0x98346718c549ed525201fc583796ecf2eacc0ad5",
          "topics": [
            "0xddf252ad1be2c89b69c2b068fc378daa952ba7f163c4a11628f55a4df523b3ef",
            "0x0000000000000000000000000000000000000000000000000000000000000000",
            "0x00000000000000000000000028482b1279e442f49ee76351801232d58f341cb9"
          ],
          "data": "0x000000000000000000000000000000000000000000000000000000e8d4a51000",
          "blockHash": "0xaf7e4353fb5c8f2e04896f340898cd8a9ffd8877c7456ef9cb1da8b3c1b75ddc",
          "blockNumber": "0x23a8c6f",
          "blockTimestamp": "0x698877be",
          "transactionHash": "0x886548e08f1e98865df690a42d0df2545f4fa6de28a77ff1cbe5d62388e82702",
          "transactionIndex": "0x6",
          "logIndex": "0x9",
          "removed": false
        }
      ],
      "logsBloom": "0x00000000000000000000000000000002000000000000000000000000000000000000000000000000000000000000000000000000800000000000000000000000000000000000000000000008000000000000000000000000000000000000000000000000020000000000000000000800000000000000000000000010000000000000000000000000000000000000000000000000000000000000000000000000000000000000080000000000000000000000000000000000000000000000000000000002000000000000100000000000000001000000000000000000000120000000000000000000000000000000000000000000000000000000000000000000",
      "type": "0x2",
      "transactionHash": "0x886548e08f1e98865df690a42d0df2545f4fa6de28a77ff1cbe5d62388e82702",
      "transactionIndex": "0x6",
      "blockHash": "0xaf7e4353fb5c8f2e04896f340898cd8a9ffd8877c7456ef9cb1da8b3c1b75ddc",
      "blockNumber": "0x23a8c6f",
      "gasUsed": "0x8c3f8",
      "effectiveGasPrice": "0x124f80",
      "blobGasUsed": "0x7a070",
      "from": "0x28482b1279e442f49ee76351801232d58f341cb9",
      "to": null,
      "contractAddress": "0x98346718c549ed525201fc583796ecf2eacc0ad5",
      "daFootprintGasScalar": "0x138",
      "l1BaseFeeScalar": "0x44d",
      "l1BlobBaseFee": "0x342a86f",
      "l1BlobBaseFeeScalar": "0xa118b",
      "l1Fee": "0x146acee1b4",
      "l1GasPrice": "0x3efdde94",
      "l1GasUsed": "0x642c"
    },
    {
      "status": "0x1",
      "cumulativeGasUsed": "0xdc87b",
      "logs": [
        {
          "address": "0x98346718c549ed525201fc583796ecf2eacc0ad5",
          "topics": [
            "0xddf252ad1be2c89b69c2b068fc378daa952ba7f163c4a11628f55a4df523b3ef",
            "0x0000000000000000000000000000000000000000000000000000000000000000",
            "0x00000000000000000000000028482b1279e442f49ee76351801232d58f341cb9"
          ],
          "data": "0x000000000000000000000000000000000000000000000000000000003b9aca00",
          "blockHash": "0xaf7e4353fb5c8f2e04896f340898cd8a9ffd8877c7456ef9cb1da8b3c1b75ddc",
          "blockNumber": "0x23a8c6f",
          "blockTimestamp": "0x698877be",
          "transactionHash": "0x87671ca686382735e6f2675796bc414e2119551ad37bca826b54698f046f8ed1",
          "transactionIndex": "0x7",
          "logIndex": "0xa",
          "removed": false
        }
      ],
      "logsBloom": "0x00000000000000000000000000000002000000000000000000000000000000000000000000000000000000000000000000000000800000000000000000000000000000000000000000000008000000000000000000000000000000000000000000000000020000000000000000000800000000000000000000000010000000000000000000000000000000000000000000000000000000000000000000000000000000000000080000000000000000000000000000000000000000000000000000000002000000000000100000000000000001000000000000000000000120000000000000000000000000000000000000000000000000000000000000000000",
      "type": "0x2",
      "transactionHash": "0x87671ca686382735e6f2675796bc414e2119551ad37bca826b54698f046f8ed1",
      "transactionIndex": "0x7",
      "blockHash": "0xaf7e4353fb5c8f2e04896f340898cd8a9ffd8877c7456ef9cb1da8b3c1b75ddc",
      "blockNumber": "0x23a8c6f",
      "gasUsed": "0x84ad",
      "effectiveGasPrice": "0x124f80",
      "blobGasUsed": "0x79e0",
      "from": "0x28482b1279e442f49ee76351801232d58f341cb9",
      "to": "0x98346718c549ed525201fc583796ecf2eacc0ad5",
      "contractAddress": null,
      "daFootprintGasScalar": "0x138",
      "l1BaseFeeScalar": "0x44d",
      "l1BlobBaseFee": "0x342a86f",
      "l1BlobBaseFeeScalar": "0xa118b",
      "l1Fee": "0x1461a51ca",
      "l1GasPrice": "0x3efdde94",
      "l1GasUsed": "0x640"
    }
  ],
  "libraries": [],
  "pending": [],
  "returns": {},
  "timestamp": 1770551230,
  "chain": 84532,
  "commit": "4ddc642"
}