{
  "transactions": [
    {
      "hash": "0xb3a0df2eceaf0e6e6267d195525ba0a09dba9ba9e46b2aa8bd597d7cf5543788",
      "transactionType": "CALL",
      "contractName": null,
      "contractAddress": "0x05e73354cfdd6745c338b50bcfdfa3aa6fa03408",
      "function": "initialize((address,address,uint24,int24,address),uint160)",
      "arguments": [
        "(0x0Ea67A670a4182Db6eB18A6aAbC0f75195ef2EfC, 0x98346718c549Ed525201fC583796eCf2eaCC0aD5, 3000, 60, 0x2EEeC56B3037EC07cf2024a896C9708Bc94280C4)",
        "79228162514264337593543950336"
      ],
      "transaction": {
        "from": "0x28482b1279e442f49ee76351801232d58f341cb9",
        "to": "0x05e73354cfdd6745c338b50bcfdfa3aa6fa03408",
        "gas": "0x11721",
        "value": "0x0",
        "input": "0x6276cbbe0000000000000000000000000ea67a670a4182db6eb18a6aabc0f75195ef2efc00000000000000000000000098346718c549ed525201fc583796ecf2eacc0ad50000000000000000000000000000000000000000000000000000000000000bb8000000000000000000000000000000000000000000000000000000000000003c0000000000000000000000002eeec56b3037ec07cf2024a896c9708bc94280c40000000000000000000000000000000000000001000000000000000000000000",
        "nonce": "0x8c",
        "chainId": "0x14a34"
      },
      "additionalContracts": [],
      "isFixedGasLimit": false
    },
    {
      "hash": "0xe563d9642c22956d2c5ea4c3e30373823181f73055dad6dc66096165ba322312",
      "transactionType": "CALL",
      "contractName": null,
      "contractAddress": "0x0ea67a670a4182db6eb18a6aabc0f75195ef2efc",
      "function": "approve(address,uint256)",
      "arguments": [
        "0x000000000022D473030F116dDEE9F6B43aC78BA3",
        "115792089237316195423570985008687907853269984665640564039457584007913129639935"
      ],
      "transaction": {
        "from": "0x28482b1279e442f49ee76351801232d58f341cb9",
        "to": "0x0ea67a670a4182db6eb18a6aabc0f75195ef2efc",
        "gas": "0x962f",
        "value": "0x0",
        "input": "0x095ea7b3000000000000000000000000000000000022d473030f116ddee9f6b43ac78ba3ffffffffffffffffffffffffffffffffffffffffffffffffffffffffffffffff",
        "nonce": "0x8d",
        "chainId": "0x14a34"
      },
      "additionalContracts": [],
      "isFixedGasLimit": false
    },
    {
      "hash": "0x7cbd41724d770b0e5f67260ef227c98b08b4992f2f33d40f7508ce48a8fd75e5",
      "transactionType": "CALL",
      "contractName": null,
      "contractAddress": "0x98346718c549ed525201fc583796ecf2eacc0ad5",
      "function": "approve(address,uint256)",
      "arguments": [
        "0x000000000022D473030F116dDEE9F6B43aC78BA3",
        "115792089237316195423570985008687907853269984665640564039457584007913129639935"
      ],
      "transaction": {
        "from": "0x28482b1279e442f49ee76351801232d58f341cb9",
        "to": "0x98346718c549ed525201fc583796ecf2eacc0ad5",
        "gas": "0x962f",
        "value": "0x0",
        "input": "0x095ea7b3000000000000000000000000000000000022d473030f116ddee9f6b43ac78ba3ffffffffffffffffffffffffffffffffffffffffffffffffffffffffffffffff",
        "nonce": "0x8e",
        "chainId": "0x14a34"
      },
      "additionalContracts": [],
      "isFixedGasLimit": false
    },
    {
      "hash": "0xb942a03ac42a81da06c54f5e3212ea2ba2bb3ede66a92554f82c55af201da689",
      "transactionType": "CALL",
      "contractName": null,
      "contractAddress": "0x000000000022d473030f116ddee9f6b43ac78ba3",
      "function": "approve(address,address,uint160,uint48)",
      "arguments": [
        "0x0Ea67A670a4182Db6eB18A6aAbC0f75195ef2EfC",
        "0x4B2C77d209D3405F41a037Ec6c77F7F5b8e2ca80",
        "1461501637330902918203684832716283019655932542975",
        "281474976710655"
      ],
      "transaction": {
        "from": "0x28482b1279e442f49ee76351801232d58f341cb9",
        "to": "0x000000000022d473030f116ddee9f6b43ac78ba3",
        "gas": "0x96a0",
        "value": "0x0",
        "input": "0x87517c450000000000000000000000000ea67a670a4182db6eb18a6aabc0f75195ef2efc0000000000000000000000004b2c77d209d3405f41a037ec6c77f7f5b8e2ca80000000000000000000000000ffffffffffffffffffffffffffffffffffffffff0000000000000000000000000000000000000000000000000000ffffffffffff",
        "nonce": "0x8f",
        "chainId": "0x14a34"
      },
      "additionalContracts": [],
      "isFixedGasLimit": false
    },
    {
      "hash": "0x4a6439ac811080d13879237fd99342bc7ad9152f850d45a853b21f572771c4f8",
      "transactionType": "CALL",
      "contractName": null,
      "contractAddress": "0x000000000022d473030f116ddee9f6b43ac78ba3",
      "function": "approve(address,address,uint160,uint48)",
      "arguments": [
        "0x98346718c549Ed525201fC583796eCf2eaCC0aD5",
        "0x4B2C77d209D3405F41a037Ec6c77F7F5b8e2ca80",
        "1461501637330902918203684832716283019655932542975",
        "281474976710655"
      ],
      "transaction": {
        "from": "0x28482b1279e442f49ee76351801232d58f341cb9",
        "to": "0x000000000022d473030f116ddee9f6b43ac78ba3",
        "gas": "0x96a0",
        "value": "0x0",
        "input": "0x87517c4500000000000000000000000098346718c549ed525201fc583796ecf2eacc0ad50000000000000000000000004b2c77d209d3405f41a037ec6c77f7f5b8e2ca80000000000000000000000000ffffffffffffffffffffffffffffffffffffffff0000000000000000000000000000000000000000000000000000ffffffffffff",
        "nonce": "0x90",
        "chainId": "0x14a34"
      },
      "additionalContracts": [],
      "isFixedGasLimit": false
    },
    {
      "hash": "0x53d38fefb44e1982e44a086ff1373fd5d8c3dea3df30fa1654f0621dfa0f3b9c",
      "transactionType": "CALL",
      "contractName": null,
      "contractAddress": "0x4b2c77d209d3405f41a037ec6c77f7f5b8e2ca80",
      "function": "modifyLiquidities(bytes,uint256)",
      "arguments": [
        "0x0000000000000000000000000000000000000000000000000000000000000040000000000000000000000000000000000000000000000000000000000000008000000000000000000000000000000000000000000000000000000000000000030212120000000000000000000000000000000000000000000000000000000000000000000000000000000000000000000000000000000000000000000000000300000000000000000000000000000000000000000000000000000000000000600000000000000000000000000000000000000000000000000000000000000220000000000000000000000000000000000000000000000000000000000000026000000000000000000000000000000000000000000000000000000000000001a00000000000000000000000000ea67a670a4182db6eb18a6aabc0f75195ef2efc00000000000000000000000098346718c549ed525201fc583796ecf2eacc0ad50000000000000000000000000000000000000000000000000000000000000bb8000000000000000000000000000000000000000000000000000000000000003c0000000000000000000000002eeec56b3037ec07cf2024a896c9708bc94280c4ffffffffffffffffffffffffffffffffffffffffffffffffffffffffffffffc4000000000000000000000000000000000000000000000000000000000000003c00000000000000000000000000000000000000000000000000000000c6fd81610000000000000000000000000000000000000000000000008d8dadf544fc0000000000000000000000000000000000000000000000000000000000000098968000000000000000000000000028482b1279e442f49ee76351801232d58f341cb90000000000000000000000000000000000000000000000000000000000000180000000000000000000000000000000000000000000000000000000000000000000000000000000000000000000000000000000000000000000000000000000200000000000000000000000000ea67a670a4182db6eb18a6aabc0f75195ef2efc000000000000000000000000000000000000000000000000000000000000002000000000000000000000000098346718c549ed525201fc583796ecf2eacc0ad5",
        "1770554596"
      ],
      "transaction": {
        "from": "0x28482b1279e442f49ee76351801232d58f341cb9",
        "to": "0x4b2c77d209d3405f41a037ec6c77f7f5b8e2ca80",
        "gas": "0x8b2e6",
        "value": "0x0",
        "input": "0xdd46508f000000000000000000000000000000000000000000000000000000000000004000000000000000000000000000000000000000000000000000000000698884e400000000000000000000000000000000000000000000000000000000000003400000000000000000000000000000000000000000000000000000000000000040000000000000000000000000000000000000000000000000000000000000008000000000000000000000000000000000000000000000000000000000000000030212120000000000000000000000000000000000000000000000000000000000000000000000000000000000000000000000000000000000000000000000000300000000000000000000000000000000000000000000000000000000000000600000000000000000000000000000000000000000000000000000000000000220000000000000000000000000000000000000000000000000000000000000026000000000000000000000000000000000000000000000000000000000000001a00000000000000000000000000ea67a670a4182db6eb18a6aabc0f75195ef2efc00000000000000000000000098346718c549ed525201fc583796ecf2eacc0ad50000000000000000000000000000000000000000000000000000000000000bb8000000000000000000000000000000000000000000000000000000000000003c0000000000000000000000002eeec56b3037ec07cf2024a896c9708bc94280c4ffffffffffffffffffffffffffffffffffffffffffffffffffffffffffffffc4000000000000000000000000000000000000000000000000000000000000003c00000000000000000000000000000000000000000000000000000000c6fd81610000000000000000000000000000000000000000000000008d8dadf544fc0000000000000000000000000000000000000000000000000000000000000098968000000000000000000000000028482b1279e442f49ee76351801232d58f341cb90000000000000000000000000000000000000000000000000000000000000180000000000000000000000000000000000000000000000000000000000000000000000000000000000000000000000000000000000000000000000000000000200000000000000000000000000ea67a670a4182db6eb18a6aabc0f75195ef2efc000000000000000000000000000000000000000000000000000000000000002000000000000000000000000098346718c549ed525201fc583796ecf2eacc0ad5",
        "nonce": "0x91",
        "chainId": "0x14a34"
      },
      "additionalContracts": [],
      "isFixedGasLimit": false
    }
  ],
  "receipts": [
    {
      "status": "0x1",
      "cumulativeGasUsed": "0x27280f",
      "logs": [
        {
          "address": "0x05e73354cfdd6745c338b50bcfdfa3aa6fa03408",
          "topics": [
            "0xdd466e674ea557f56295e2d0218a125ea4b4f0f6f3307b95f85e6110838d6438",
            "0x80ad533c3191174791a9aa750417d1178551c3dce37281b05341eac02557a8ac",
            "0x0000000000000000000000000ea67a670a4182db6eb18a6aabc0f75195ef2efc",
            "0x00000000000000000000000098346718c549ed525201fc583796ecf2eacc0ad5"
          ],
          "data": "0x0000000000000000000000000000000000000000000000000000000000000bb8000000000000000000000000000000000000000000000000000000000000003c0000000000000000000000002eeec56b3037ec07cf2024a896c9708bc94280c400000000000000000000000000000000000000010000000000000000000000000000000000000000000000000000000000000000000000000000000000000000",
          "blockHash": "0x0000000000000000000000000000000000000000000000000000000000000000",
          "blockNumber": "0x23a9278",
          "blockTimestamp": "0x698883d0",
          "transactionHash": "0xb3a0df2eceaf0e6e6267d195525ba0a09dba9ba9e46b2aa8bd597d7cf5543788",
          "transactionIndex": "0x2",
          "logIndex": "0x0",
          "removed": false
        }
      ],
      "logsBloom": "0x00000000000800000000000000000000000000000000020000000000000000000000000100000000000000000000000000000000000000000000000000000000000000000000000000000000000000000000000000000000000000000200000000000000000000080000000000000000004000000000000000000000000000000000000004000008000000000000000000000001000000000000004000200000000000000000000000000000000000000000000000000000000800000000000000000000001000800000000000000000002000000000000000000000000000000000000000000000000000000000000000000000000000000000000000000000",
      "type": "0x2",
      "transactionHash": "0xb3a0df2eceaf0e6e6267d195525ba0a09dba9ba9e46b2aa8bd597d7cf5543788",
      "transactionIndex": "0x2",
      "blockHash": "0x0000000000000000000000000000000000000000000000000000000000000000",
      "blockNumber": "0x23a9278",
      "gasUsed": "0xca16",
      "effectiveGasPrice": "0x12754b",
      "blobGasUsed": "0xaf80",
      "from": "0x28482b1279e442f49ee76351801232d58f341cb9",
      "to": "0x05e73354cfdd6745c338b50bcfdfa3aa6fa03408",
      "contractAddress": null,
      "daFootprintGasScalar": "0x138",
      "l1BaseFeeScalar": "0x44d",
      "l1BlobBaseFee": "0x38d9c3d",
      "l1BlobBaseFeeScalar": "0xa118b",
      "l1Fee": "0x1fb441dd1",
      "l1GasPrice": "0x41c94ac4",
      "l1GasUsed": "0x90c"
    },
    {
      "status": "0x1",
      "cumulativeGasUsed": "0x55fcaa",
      "logs": [
        {
          "address": "0x0ea67a670a4182db6eb18a6aabc0f75195ef2efc",
          "topics": [
            "0x8c5be1e5ebec7d5bd14f71427d1e84f3dd0314c0f7b2291e5b200ac8c7c3b925",
            "0x00000000000000000000000028482b1279e442f49ee76351801232d58f341cb9",
            "0x000000000000000000000000000000000022d473030f116ddee9f6b43ac78ba3"
          ],
          "data": "0xffffffffffffffffffffffffffffffffffffffffffffffffffffffffffffffff",
          "blockHash": "0x0000000000000000000000000000000000000000000000000000000000000000",
          "blockNumber": "0x23a9278",
          "blockTimestamp": "0x698883d0",
          "transactionHash": "0xe563d9642c22956d2c5ea4c3e30373823181f73055dad6dc66096165ba322312",
          "transactionIndex": "0x7",
          "logIndex": "0x63",
          "removed": false
        }
      ],
      "logsBloom": "0x00000000000000000000000000000002000000000000000000000000000000000000000000000000000000000000000000000000800000000000000000200000000000000000000000004000000000000000000000000800000000000000000000000000000000000000000000000000000000000000000000000000000000000000000000000000000000000000000000000000000000000000000000000000020000000000000000000000000000000000000000000000000000410000000000000000000000000000100000000000000000000000000000000000000000000010000000000000000000000000000000000000000000000000000000000000",
      "type": "0x2",
      "transactionHash": "0xe563d9642c22956d2c5ea4c3e30373823181f73055dad6dc66096165ba322312",
      "transactionIndex": "0x7",
      "blockHash": "0x0000000000000000000000000000000000000000000000000000000000000000",
      "blockNumber": "0x23a9278",
      "gasUsed": "0x66b1",
      "effectiveGasPrice": "0x12754b",
      "blobGasUsed": "0x79e0",
      "from": "0x28482b1279e442f49ee76351801232d58f341cb9",
      "to": "0x0ea67a670a4182db6eb18a6aabc0f75195ef2efc",
      "contractAddress": null,
      "daFootprintGasScalar": "0x138",
      "l1BaseFeeScalar": "0x44d",
      "l1BlobBaseFee": "0x38d9c3d",
      "l1BlobBaseFeeScalar": "0xa118b",
      "l1Fee": "0x2d643da91b",
      "l1GasPrice": "0x41c94ac4",
      "l1GasUsed": "0x640"
    },
    {
      "status": "0x1",
      "cumulativeGasUsed": "0x57b82f",
      "logs": [
        {
          "address": "0x98346718c549ed525201fc583796ecf2eacc0ad5",
          "topics": [
            "0x8c5be1e5ebec7d5bd14f71427d1e84f3dd0314c0f7b2291e5b200ac8c7c3b925",
            "0x00000000000000000000000028482b1279e442f49ee76351801232d58f341cb9",
            "0x000000000000000000000000000000000022d473030f116ddee9f6b43ac78ba3"
          ],
          "data": "0xffffffffffffffffffffffffffffffffffffffffffffffffffffffffffffffff",
          "blockHash": "0x0000000000000000000000000000000000000000000000000000000000000000",
          "blockNumber": "0x23a9278",
          "blockTimestamp": "0x698883d0",
          "transactionHash": "0x7cbd41724d770b0e5f67260ef227c98b08b4992f2f33d40f7508ce48a8fd75e5",
          "transactionIndex": "0x9",
          "logIndex": "0x66",
          "removed": false
        }
      ],
      "logsBloom": "0x00000000000000000000000000000002000000000000000000000000000000000000000000000000000000000000000000000000800000000000000000200000000000000000000000004000000000000000000000000800000000000000000000000000000000000000000000000000000000000000000000000000000000000000000000000000000000000000000000000000000000000000000000000000020000000000080000000000000000000000000000000000000000000000000000000000000000000000100000000000000001000000000000000000000100000010000000000000000000000000000000000000000000000000000000000000",
      "type": "0x2",
      "transactionHash": "0x7cbd41724d770b0e5f67260ef227c98b08b4992f2f33d40f7508ce48a8fd75e5",
      "transactionIndex": "0x9",
      "blockHash": "0x0000000000000000000000000000000000000000000000000000000000000000",
      "blockNumber": "0x23a9278",
      "gasUsed": "0x66b1",
      "effectiveGasPrice": "0x12754b",
      "blobGasUsed": "0x79e0",
      "from": "0x28482b1279e442f49ee76351801232d58f341cb9",
      "to": "0x98346718c549ed525201fc583796ecf2eacc0ad5",
      "contractAddress": null,
      "daFootprintGasScalar": "0x138",
      "l1BaseFeeScalar": "0x44d",
      "l1BlobBaseFee": "0x38d9c3d",
      "l1BlobBaseFeeScalar": "0xa118b",
      "l1Fee": "0x15e5858d9",
      "l1GasPrice": "0x41c94ac4",
      "l1GasUsed": "0x640"
    },
    {
      "status": "0x1",
      "cumulativeGasUsed": "0x59e76e",
      "logs": [
        {
          "address": "0x000000000022d473030f116ddee9f6b43ac78ba3",
          "topics": [
            "0xda9fa7c1b00402c17d0161b249b1ab8bbec047c5a52207b9c112deffd817036b",
            "0x00000000000000000000000028482b1279e442f49ee76351801232d58f341cb9",
            "0x0000000000000000000000000ea67a670a4182db6eb18a6aabc0f75195ef2efc",
            "0x0000000000000000000000004b2c77d209d3405f41a037ec6c77f7f5b8e2ca80"
          ],
          "data": "0x000000000000000000000000ffffffffffffffffffffffffffffffffffffffff0000000000000000000000000000000000000000000000000000ffffffffffff",
          "blockHash": "0x0000000000000000000000000000000000000000000000000000000000000000",
          "blockNumber": "0x23a9278",
          "blockTimestamp": "0x698883d0",
          "transactionHash": "0xb942a03ac42a81da06c54f5e3212ea2ba2bb3ede66a92554f82c55af201da689",
          "transactionIndex": "0xb",
          "logIndex": "0x67",
          "removed": false
        }
      ],
      "logsBloom": "0x00010000000800010000000000000002000000000000000000000000000000000000000000000000000000000000000000000000800000000008000010080000000000000000000000000000000000000000000000000000000000000200000000000000000000000000000000000000000000000000000000000000000000000020000000000000000000000000000000000000000000000000000000000000000000000000000000000000000000000000000000000000000000080000000000000000000000800000100000000000000000000000000040000000000000000000000000000000000000000000000000000000000000000000000000000400",
      "type": "0x2",
      "transactionHash": "0xb942a03ac42a81da06c54f5e3212ea2ba2bb3ede66a92554f82c55af201da689",
      "transactionIndex": "0xb",
      "blockHash": "0x0000000000000000000000000000000000000000000000000000000000000000",
      "blockNumber": "0x23a9278",
      "gasUsed": "0x6d0e",
      "effectiveGasPrice": "0x12754b",
      "blobGasUsed": "0x8880",
      "from": "0x28482b1279e442f49ee76351801232d58f341cb9",
      "to": "0x000000000022d473030f116ddee9f6b43ac78ba3",
      "contractAddress": null,
      "daFootprintGasScalar": "0x138",
      "l1BaseFeeScalar": "0x44d",
      "l1BlobBaseFee": "0x38d9c3d",
      "l1BlobBaseFeeScalar": "0xa118b",
      "l1Fee": "0x15e5858d9",
      "l1GasPrice": "0x41c94ac4",
      "l1GasUsed": "0x702"
    },
    {
      "status": "0x1",
      "cumulativeGasUsed": "0x5a547c",
      "logs": [
        {
          "address": "0x000000000022d473030f116ddee9f6b43ac78ba3",
          "topics": [
            "0xda9fa7c1b00402c17d0161b249b1ab8bbec047c5a52207b9c112deffd817036b",
            "0x00000000000000000000000028482b1279e442f49ee76351801232d58f341cb9",
            "0x00000000000000000000000098346718c549ed525201fc583796ecf2eacc0ad5",
            "0x0000000000000000000000004b2c77d209d3405f41a037ec6c77f7f5b8e2ca80"
          ],
          "data": "0x000000000000000000000000ffffffffffffffffffffffffffffffffffffffff0000000000000000000000000000000000000000000000000000ffffffffffff",
          "blockHash": "0x0000000000000000000000000000000000000000000000000000000000000000",
          "blockNumber": "0x23a9278",
          "blockTimestamp": "0x698883d0",
          "transactionHash": "0x4a6439ac811080d13879237fd99342bc7ad9152f850d45a853b21f572771c4f8",
          "transactionIndex": "0xc",
          "logIndex": "0x68",
          "removed": false
        }
      ],
      "logsBloom": "0x00010000000000010000000000000002000000000000000000000000000000000000000000000000000000000000000000000000800000000008000010080000000000000000000000000000000000000000000000000000000000000000000000000000000000000000000000000000004000000000000000000000000000000020000000000000000000000000000000000000000000000000004000000000000000000000000000000000000000000000000000000000000800080000000000000000000000000000100000000000000000000000000040000000000000000000000000000000000000000000000000000000000000000000000000000400",
      "type": "0x2",
      "transactionHash": "0x4a6439ac811080d13879237fd99342bc7ad9152f850d45a853b21f572771c4f8",
      "transactionIndex": "0xc",
      "blockHash": "0x0000000000000000000000000000000000000000000000000000000000000000",
      "blockNumber": "0x23a9278",
      "gasUsed": "0x6d0e",
      "effectiveGasPrice": "0x12754b",
      "blobGasUsed": "0x8880",
      "from": "0x28482b1279e442f49ee76351801232d58f341cb9",
      "to": "0x000000000022d473030f116ddee9f6b43ac78ba3",
      "contractAddress": null,
      "daFootprintGasScalar": "0x138",
      "l1BaseFeeScalar": "0x44d",
      "l1BlobBaseFee": "0x38d9c3d",
      "l1BlobBaseFeeScalar": "0xa118b",
      "l1Fee": "0x15e5858d9",
      "l1GasPrice": "0x41c94ac4",
      "l1GasUsed": "0x702"
    },
    {
      "status": "0x1",
      "cumulativeGasUsed": "0x604727",
      "logs": [
        {
          "address": "0x4b2c77d209d3405f41a037ec6c77f7f5b8e2ca80",
          "topics": [
            "0xddf252ad1be2c89b69c2b068fc378daa952ba7f163c4a11628f55a4df523b3ef",
            "0x0000000000000000000000000000000000000000000000000000000000000000",
            "0x00000000000000000000000028482b1279e442f49ee76351801232d58f341cb9",
            "0x00000000000000000000000000000000000000000000000000000000000042b4"
          ],
          "data": "0x",
          "blockHash": "0x0000000000000000000000000000000000000000000000000000000000000000",
          "blockNumber": "0x23a9278",
          "blockTimestamp": "0x698883d0",
          "transactionHash": "0x53d38fefb44e1982e44a086ff1373fd5d8c3dea3df30fa1654f0621dfa0f3b9c",
          "transactionIndex": "0xd",
          "logIndex": "0x69",
          "removed": false
        },
        {
          "address": "0x05e73354cfdd6745c338b50bcfdfa3aa6fa03408",
          "topics": [
            "0xf208f4912782fd25c7f114ca3723a2d5dd6f3bcc3ac8db5af63baa85f711d5ec",
            "0x80ad533c3191174791a9aa750417d1178551c3dce37281b05341eac02557a8ac",
            "0x0000000000000000000000004b2c77d209d3405f41a037ec6c77f7f5b8e2ca80"
          ],
          "data": "0xffffffffffffffffffffffffffffffffffffffffffffffffffffffffffffffc4000000000000000000000000000000000000000000000000000000000000003c00000000000000000000000000000000000000000000000000000000c6fd816100000000000000000000000000000000000000000000000000000000000042b4",
          "blockHash": "0x0000000000000000000000000000000000000000000000000000000000000000",
          "blockNumber": "0x23a9278",
          "blockTimestamp": "0x698883d0",
          "transactionHash": "0x53d38fefb44e1982e44a086ff1373fd5d8c3dea3df30fa1654f0621dfa0f3b9c",
          "transactionIndex": "0xd",
          "logIndex": "0x6a",
          "removed": false
        },
        {
          "address": "0x0ea67a670a4182db6eb18a6aabc0f75195ef2efc",
          "topics": [
            "0xddf252ad1be2c89b69c2b068fc378daa952ba7f163c4a11628f55a4df523b3ef",
            "0x00000000000000000000000028482b1279e442f49ee76351801232d58f341cb9",
            "0x00000000000000000000000005e73354cfdd6745c338b50bcfdfa3aa6fa03408"
          ],
          "data": "0x0000000000000000000000000000000000000000000000000000000000989680",
          "blockHash": "0x0000000000000000000000000000000000000000000000000000000000000000",
          "blockNumber": "0x23a9278",
          "blockTimestamp": "0x698883d0",
          "transactionHash": "0x53d38fefb44e1982e44a086ff1373fd5d8c3dea3df30fa1654f0621dfa0f3b9c",
          "transactionIndex": "0xd",
          "logIndex": "0x6b",
          "removed": false
        },
        {
          "address": "0x98346718c549ed525201fc583796ecf2eacc0ad5",
          "topics": [
            "0xddf252ad1be2c89b69c2b068fc378daa952ba7f163c4a11628f55a4df523b3ef",
            "0x00000000000000000000000028482b1279e442f49ee76351801232d58f341cb9",
            "0x00000000000000000000000005e73354cfdd6745c338b50bcfdfa3aa6fa03408"
          ],
          "data": "0x0000000000000000000000000000000000000000000000000000000000989680",
          "blockHash": "0x0000000000000000000000000000000000000000000000000000000000000000",
          "blockNumber": "0x23a9278",
          "blockTimestamp": "0x698883d0",
          "transactionHash": "0x53d38fefb44e1982e44a086ff1373fd5d8c3dea3df30fa1654f0621dfa0f3b9c",
          "transactionIndex": "0xd",
          "logIndex": "0x6c",
          "removed": false
        }
      ],
      "logsBloom": "0x00000000000000010000000000000002000000000000020000000000000000000100000100000000000000000000000000000000800000000008000010000800000000000010000000000008000000000000000000100000000000008000000000000000020000080000000000000800000000000000000000000210000000000000000005000000000000000000000000000000000000000000000000000000000004000000080000040000000000000000000000000000000000410000000000000002001000000000100000000000002001000000000000000000000120000000000001000000000000000800000004000000000000000000000000000000",
      "type": "0x2",
      "transactionHash": "0x53d38fefb44e1982e44a086ff1373fd5d8c3dea3df30fa1654f0621dfa0f3b9c",
      "transactionIndex": "0xd",
      "blockHash": "0x0000000000000000000000000000000000000000000000000000000000000000",
      "blockNumber": "0x23a9278",
      "gasUsed": "0x5f2ab",
      "effectiveGasPrice": "0x12754b",
      "blobGasUsed": "0x14cb8",
      "from": "0x28482b1279e442f49ee76351801232d58f341cb9",
      "to": "0x4b2c77d209d3405f41a037ec6c77f7f5b8e2ca80",
      "contractAddress": null,
      "daFootprintGasScalar": "0x138",
      "l1BaseFeeScalar": "0x44d",
      "l1BlobBaseFee": "0x38d9c3d",
      "l1BlobBaseFeeScalar": "0xa118b",
      "l1Fee": "0x15e5858d9",
      "l1GasPrice": "0x41c94ac4",
      "l1GasUsed": "0x1119"
    }
  ],
  "libraries": [],
  "pending": [],
  "returns": {},
  "timestamp": 1770554319,
  "chain": 84532,
  "commit": "9553558"
}