{
  "transactions": [
    {
      "hash": "0x5b839bce23cf76e94c09a1d7396db87189de6d9caafb9656bcf3a5d231425d82",
      "transactionType": "CALL",
      "contractName": null,
      "contractAddress": "0x05e73354cfdd6745c338b50bcfdfa3aa6fa03408",
      "function": "initialize((address,address,uint24,int24,address),uint160)",
      "arguments": [
        "(0x036CbD53842c5426634e7929541eC2318f3dCF7e, 0x0Ea67A670a4182Db6eB18A6aAbC0f75195ef2EfC, 3000, 60, 0x5a4EFc68451D6e88efe22A707a1936f7C11140C4)",
        "79228162514264337593543950336"
      ],
      "transaction": {
        "from": "0x28482b1279e442f49ee76351801232d58f341cb9",
        "to": "0x05e73354cfdd6745c338b50bcfdfa3aa6fa03408",
        "gas": "0x11721",
        "value": "0x0",
        "input": "0x6276cbbe000000000000000000000000036cbd53842c5426634e7929541ec2318f3dcf7e0000000000000000000000000ea67a670a4182db6eb18a6aabc0f75195ef2efc0000000000000000000000000000000000000000000000000000000000000bb8000000000000000000000000000000000000000000000000000000000000003c0000000000000000000000005a4efc68451d6e88efe22a707a1936f7c11140c40000000000000000000000000000000000000001000000000000000000000000",
        "nonce": "0x5a",
        "chainId": "0x14a34"
      },
      "additionalContracts": [],
      "isFixedGasLimit": false
    },
    {
      "hash": "0x1c1dfa34d8eb85a2d41ff9606c363f10b5fab9069c9a68f0f3c11e982e8529a7",
      "transactionType": "CALL",
      "contractName": null,
      "contractAddress": "0x4b2c77d209d3405f41a037ec6c77f7f5b8e2ca80",
      "function": "modifyLiquidities(bytes,uint256)",
      "arguments": [
        "0x0000000000000000000000000000000000000000000000000000000000000040000000000000000000000000000000000000000000000000000000000000008000000000000000000000000000000000000000000000000000000000000000030212120000000000000000000000000000000000000000000000000000000000000000000000000000000000000000000000000000000000000000000000000300000000000000000000000000000000000000000000000000000000000000600000000000000000000000000000000000000000000000000000000000000220000000000000000000000000000000000000000000000000000000000000026000000000000000000000000000000000000000000000000000000000000001a0000000000000000000000000036cbd53842c5426634e7929541ec2318f3dcf7e0000000000000000000000000ea67a670a4182db6eb18a6aabc0f75195ef2efc0000000000000000000000000000000000000000000000000000000000000bb8000000000000000000000000000000000000000000000000000000000000003c0000000000000000000000005a4efc68451d6e88efe22a707a1936f7c11140c4ffffffffffffffffffffffffffffffffffffffffffffffffffffffffffffffc4000000000000000000000000000000000000000000000000000000000000003c00000000000000000000000000000000000000000000000000000000c6fd816100000000000000000000000000000000000000000000000000000000009896800000000000000000000000000000000000000000000000008d8dadf544fc000000000000000000000000000028482b1279e442f49ee76351801232d58f341cb9000000000000000000000000000000000000000000000000000000000000018000000000000000000000000000000000000000000000000000000000000000000000000000000000000000000000000000000000000000000000000000000020000000000000000000000000036cbd53842c5426634e7929541ec2318f3dcf7e00000000000000000000000000000000000000000000000000000000000000200000000000000000000000000ea67a670a4182db6eb18a6aabc0f75195ef2efc",
        "1770550386"
      ],
      "transaction": {
        "from": "0x28482b1279e442f49ee76351801232d58f341cb9",
        "to": "0x4b2c77d209d3405f41a037ec6c77f7f5b8e2ca80",
        "gas": "0x87d16",
        "value": "0x0",
        "input": "0xdd46508f0000000000000000000000000000000000000000000000000000000000000040000000000000000000000000000000000000000000000000000000006988747200000000000000000000000000000000000000000000000000000000000003400000000000000000000000000000000000000000000000000000000000000040000000000000000000000000000000000000000000000000000000000000008000000000000000000000000000000000000000000000000000000000000000030212120000000000000000000000000000000000000000000000000000000000000000000000000000000000000000000000000000000000000000000000000300000000000000000000000000000000000000000000000000000000000000600000000000000000000000000000000000000000000000000000000000000220000000000000000000000000000000000000000000000000000000000000026000000000000000000000000000000000000000000000000000000000000001a0000000000000000000000000036cbd53842c5426634e7929541ec2318f3dcf7e0000000000000000000000000ea67a670a4182db6eb18a6aabc0f75195ef2efc0000000000000000000000000000000000000000000000000000000000000bb8000000000000000000000000000000000000000000000000000000000000003c0000000000000000000000005a4efc68451d6e88efe22a707a1936f7c11140c4ffffffffffffffffffffffffffffffffffffffffffffffffffffffffffffffc4000000000000000000000000000000000000000000000000000000000000003c00000000000000000000000000000000000000000000000000000000c6fd816100000000000000000000000000000000000000000000000000000000009896800000000000000000000000000000000000000000000000008d8dadf544fc000000000000000000000000000028482b1279e442f49ee76351801232d58f341cb9000000000000000000000000000000000000000000000000000000000000018000000000000000000000000000000000000000000000000000000000000000000000000000000000000000000000000000000000000000000000000000000020000000000000000000000000036cbd53842c5426634e7929541ec2318f3dcf7e00000000000000000000000000000000000000000000000000000000000000200000000000000000000000000ea67a670a4182db6eb18a6aabc0f75195ef2efc",
        "nonce": "0x5b",
        "chainId": "0x14a34"
      },
      "additionalContracts": [],
      "isFixedGasLimit": false
    }
  ],
  "receipts": [
    {
      "status": "0x1",
      "cumulativeGasUsed": "0x241d7e",
      "logs": [
        {
          "address": "0x05e73354cfdd6745c338b50bcfdfa3aa6fa03408",
          "topics": [
            "0xdd466e674ea557f56295e2d0218a125ea4b4f0f6f3307b95f85e6110838d6438",
            "0xcdbc8a6f4b0746b412b19556acf7c16c8d36e2a7b79385e819f96d4cf839a154",
            "0x000000000000000000000000036cbd53842c5426634e7929541ec2318f3dcf7e",
            "0x0000000000000000000000000ea67a670a4182db6eb18a6aabc0f75195ef2efc"
          ],
          "data": "0x0000000000000000000000000000000000000000000000000000000000000bb8000000000000000000000000000000000000000000000000000000000000003c0000000000000000000000005a4efc68451d6e88efe22a707a1936f7c11140c400000000000000000000000000000000000000010000000000000000000000000000000000000000000000000000000000000000000000000000000000000000",
          "blockHash": "0x0000000000000000000000000000000000000000000000000000000000000000",
          "blockNumber": "0x23a8a3f",
          "blockTimestamp": "0x6988735e",
          "transactionHash": "0x5b839bce23cf76e94c09a1d7396db87189de6d9caafb9656bcf3a5d231425d82",
          "transactionIndex": "0xc",
          "logIndex": "0x6e",
          "removed": false
        }
      ],
      "logsBloom": "0x00000000000800000000000000000000000000000000000000000000001000000000000100000000001000000000000000000000000000000000000000000000000000000000000000000000000000000000000000000000000000000200000000000000000000000000000000000000000000000000000000000000000000000000000044000008000000000000000000000001000000000000000000200000000000000000000000000000000000000000000000000000100000020000000000000000001000800000000000000000000000000000000000000000000000000000000000000000000000000040000000000000000000000000000000000000",
      "type": "0x2",
      "transactionHash": "0x5b839bce23cf76e94c09a1d7396db87189de6d9caafb9656bcf3a5d231425d82",
      "transactionIndex": "0xc",
      "blockHash": "0x0000000000000000000000000000000000000000000000000000000000000000",
      "blockNumber": "0x23a8a3f",
      "gasUsed": "0xca16",
      "effectiveGasPrice": "0x124f80",
      "blobGasUsed": "0xae48",
      "from": "0x28482b1279e442f49ee76351801232d58f341cb9",
      "to": "0x05e73354cfdd6745c338b50bcfdfa3aa6fa03408",
      "contractAddress": null,
      "daFootprintGasScalar": "0x138",
      "l1BaseFeeScalar": "0x44d",
      "l1BlobBaseFee": "0x3797003",
      "l1BlobBaseFeeScalar": "0xa118b",
      "l1Fee": "0x148c8a93e",
      "l1GasPrice": "0x387f937d",
      "l1GasUsed": "0x8ff"
    },
    {
      "status": "0x1",
      "cumulativeGasUsed": "0x2ef01e",
      "logs": [
        {
          "address": "0x4b2c77d209d3405f41a037ec6c77f7f5b8e2ca80",
          "topics": [
            "0xddf252ad1be2c89b69c2b068fc378daa952ba7f163c4a11628f55a4df523b3ef",
            "0x0000000000000000000000000000000000000000000000000000000000000000",
            "0x00000000000000000000000028482b1279e442f49ee76351801232d58f341cb9",
            "0x00000000000000000000000000000000000000000000000000000000000042a3"
          ],
          "data": "0x",
          "blockHash": "0x0000000000000000000000000000000000000000000000000000000000000000",
          "blockNumber": "0x23a8a3f",
          "blockTimestamp": "0x6988735e",
          "transactionHash": "0x1c1dfa34d8eb85a2d41ff9606c363f10b5fab9069c9a68f0f3c11e982e8529a7",
          "transactionIndex": "0x11",
          "logIndex": "0x76",
          "removed": false
        },
        {
          "address": "0x05e73354cfdd6745c338b50bcfdfa3aa6fa03408",
          "topics": [
            "0xf208f4912782fd25c7f114ca3723a2d5dd6f3bcc3ac8db5af63baa85f711d5ec",
            "0xcdbc8a6f4b0746b412b19556acf7c16c8d36e2a7b79385e819f96d4cf839a154",
            "0x0000000000000000000000004b2c77d209d3405f41a037ec6c77f7f5b8e2ca80"
          ],
          "data": "0xffffffffffffffffffffffffffffffffffffffffffffffffffffffffffffffc4000000000000000000000000000000000000000000000000000000000000003c00000000000000000000000000000000000000000000000000000000c6fd816100000000000000000000000000000000000000000000000000000000000042a3",
          "blockHash": "0x0000000000000000000000000000000000000000000000000000000000000000",
          "blockNumber": "0x23a8a3f",
          "blockTimestamp": "0x6988735e",
          "transactionHash": "0x1c1dfa34d8eb85a2d41ff9606c363f10b5fab9069c9a68f0f3c11e982e8529a7",
          "transactionIndex": "0x11",
          "logIndex": "0x77",
          "removed": false
        },
        {
          "address": "0x036cbd53842c5426634e7929541ec2318f3dcf7e",
          "topics": [
            "0xddf252ad1be2c89b69c2b068fc378daa952ba7f163c4a11628f55a4df523b3ef",
            "0x00000000000000000000000028482b1279e442f49ee76351801232d58f341cb9",
            "0x00000000000000000000000005e73354cfdd6745c338b50bcfdfa3aa6fa03408"
          ],
          "data": "0x0000000000000000000000000000000000000000000000000000000000989680",
          "blockHash": "0x0000000000000000000000000000000000000000000000000000000000000000",
          "blockNumber": "0x23a8a3f",
          "blockTimestamp": "0x6988735e",
          "transactionHash": "0x1c1dfa34d8eb85a2d41ff9606c363f10b5fab9069c9a68f0f3c11e982e8529a7",
          "transactionIndex": "0x11",
          "logIndex": "0x78",
          "removed": false
        },
        {
          "address": "0x0ea67a670a4182db6eb18a6aabc0f75195ef2efc",
          "topics": [
            "0xddf252ad1be2c89b69c2b068fc378daa952ba7f163c4a11628f55a4df523b3ef",
            "0x00000000000000000000000028482b1279e442f49ee76351801232d58f341cb9",
            "0x00000000000000000000000005e73354cfdd6745c338b50bcfdfa3aa6fa03408"
          ],
          "data": "0x0000000000000000000000000000000000000000000000000000000000989680",
          "blockHash": "0x0000000000000000000000000000000000000000000000000000000000000000",
          "blockNumber": "0x23a8a3f",
          "blockTimestamp": "0x6988735e",
          "transactionHash": "0x1c1dfa34d8eb85a2d41ff9606c363f10b5fab9069c9a68f0f3c11e982e8529a7",
          "transactionIndex": "0x11",
          "logIndex": "0x79",
          "removed": false
        }
      ],
      "logsBloom": "0x00000000040000010000000000200002000000000000000080000000001000000100000100000000001000000000000000000000800000000008000010040800000000000010000000000008000000000000000000100000000000008000000800000000020000000000000000000800000000000000000000000010000000000000000005000000000000000000000000000000000000000000000000000000000004000000000000000000000000000000000000000000000000430000000000000002001000000000100000000000000000000000000000000000000020000000000000000000000000000820000004000000000000000000000000000000",
      "type": "0x2",
      "transactionHash": "0x1c1dfa34d8eb85a2d41ff9606c363f10b5fab9069c9a68f0f3c11e982e8529a7",
      "transactionIndex": "0x11",
      "blockHash": "0x0000000000000000000000000000000000000000000000000000000000000000",
      "blockNumber": "0x23a8a3f",
      "gasUsed": "0x62547",
      "effectiveGasPrice": "0x124f80",
      "blobGasUsed": "0x14a48",
      "from": "0x28482b1279e442f49ee76351801232d58f341cb9",
      "to": "0x4b2c77d209d3405f41a037ec6c77f7f5b8e2ca80",
      "contractAddress": null,
      "daFootprintGasScalar": "0x138",
      "l1BaseFeeScalar": "0x44d",
      "l1BlobBaseFee": "0x3797003",
      "l1BlobBaseFeeScalar": "0xa118b",
      "l1Fee": "0x37b56d6e6",
      "l1GasPrice": "0x387f937d",
      "l1GasUsed": "0x10f1"
    }
  ],
  "libraries": [],
  "pending": [],
  "returns": {},
  "timestamp": 1770550108,
  "chain": 84532,
  "commit": "4ddc642"
}