{
  "transactions": [
    {
      "hash": "0xdc7796639fbcedf2d9eabeeade667034b0a275e1e378eae782ec4aa3953943e9",
      "transactionType": "CALL",
      "contractName": null,
      "contractAddress": "0x05e73354cfdd6745c338b50bcfdfa3aa6fa03408",
      "function": "initialize((address,address,uint24,int24,address),uint160)",
      "arguments": [
        "(0x0Ea67A670a4182Db6eB18A6aAbC0f75195ef2EfC, 0x98346718c549Ed525201fC583796eCf2eaCC0aD5, 3000, 60, 0xA04c7230D26b1E42EdbDF176Def36d9D9EE800C4)",
        "79228162514264337593543950336"
      ],
      "transaction": {
        "from": "0x28482b1279e442f49ee76351801232d58f341cb9",
        "to": "0x05e73354cfdd6745c338b50bcfdfa3aa6fa03408",
        "gas": "0x1277b",
        "value": "0x0",
        "input": "0x6276cbbe0000000000000000000000000ea67a670a4182db6eb18a6aabc0f75195ef2efc00000000000000000000000098346718c549ed525201fc583796ecf2eacc0ad50000000000000000000000000000000000000000000000000000000000000bb8000000000000000000000000000000000000000000000000000000000000003c000000000000000000000000a04c7230d26b1e42edbdf176def36d9d9ee800c40000000000000000000000000000000000000001000000000000000000000000",
        "nonce": "0x73",
        "chainId": "0x14a34"
      },
      "additionalContracts": [],
      "isFixedGasLimit": false
    },
    {
      "hash": "0x952e4b756fb21a8660490dcf7750bfcaf2bb818cacb12189c30894abf7378eb0",
      "transactionType": "CALL",
      "contractName": null,
      "contractAddress": "0x0ea67a670a4182db6eb18a6aabc0f75195ef2efc",
      "function": "approve(address,uint256)",
      "arguments": [
        "0x000000000022D473030F116dDEE9F6B43aC78BA3",
        "115792089237316195423570985008687907853269984665640564039457584007913129639935"
      ],
      "transaction": {
        "from": "0x28482b1279e442f49ee76351801232d58f341cb9",
        "to": "0x0ea67a670a4182db6eb18a6aabc0f75195ef2efc",
        "gas": "0x962f",
        "value": "0x0",
        "input": "0x095ea7b3000000000000000000000000000000000022d473030f116ddee9f6b43ac78ba3ffffffffffffffffffffffffffffffffffffffffffffffffffffffffffffffff",
        "nonce": "0x74",
        "chainId": "0x14a34"
      },
      "additionalContracts": [],
      "isFixedGasLimit": false
    },
    {
      "hash": "0xb0a0463216e2c9dbd789a2c629c0ab12641f78ae97ac27ed2a2596b37d4f9c4b",
      "transactionType": "CALL",
      "contractName": null,
      "contractAddress": "0x98346718c549ed525201fc583796ecf2eacc0ad5",
      "function": "approve(address,uint256)",
      "arguments": [
        "0x000000000022D473030F116dDEE9F6B43aC78BA3",
        "115792089237316195423570985008687907853269984665640564039457584007913129639935"
      ],
      "transaction": {
        "from": "0x28482b1279e442f49ee76351801232d58f341cb9",
        "to": "0x98346718c549ed525201fc583796ecf2eacc0ad5",
        "gas": "0x962f",
        "value": "0x0",
        "input": "0x095ea7b3000000000000000000000000000000000022d473030f116ddee9f6b43ac78ba3ffffffffffffffffffffffffffffffffffffffffffffffffffffffffffffffff",
        "nonce": "0x75",
        "chainId": "0x14a34"
      },
      "additionalContracts": [],
      "isFixedGasLimit": false
    },
    {
      "hash": "0x28195028d4fd967920ff6b4d341729c6981add5ac3788bd070024d4dbfbacb64",
      "transactionType": "CALL",
      "contractName": null,
      "contractAddress": "0x000000000022d473030f116ddee9f6b43ac78ba3",
      "function": "approve(address,address,uint160,uint48)",
      "arguments": [
        "0x0Ea67A670a4182Db6eB18A6aAbC0f75195ef2EfC",
        "0x4B2C77d209D3405F41a037Ec6c77F7F5b8e2ca80",
        "1461501637330902918203684832716283019655932542975",
        "281474976710655"
      ],
      "transaction": {
        "from": "0x28482b1279e442f49ee76351801232d58f341cb9",
        "to": "0x000000000022d473030f116ddee9f6b43ac78ba3",
        "gas": "0x96a0",
        "value": "0x0",
        "input": "0x87517c450000000000000000000000000ea67a670a4182db6eb18a6aabc0f75195ef2efc0000000000000000000000004b2c77d209d3405f41a037ec6c77f7f5b8e2ca80000000000000000000000000ffffffffffffffffffffffffffffffffffffffff0000000000000000000000000000000000000000000000000000ffffffffffff",
        "nonce": "0x76",
        "chainId": "0x14a34"
      },
      "additionalContracts": [],
      "isFixedGasLimit": false
    },
    {
      "hash": "0x898308ed5159051697393169007ab85eb7b2b39f70eb042a9644a9133d30a00d",
      "transactionType": "CALL",
      "contractName": null,
      "contractAddress": "0x000000000022d473030f116ddee9f6b43ac78ba3",
      "function": "approve(address,address,uint160,uint48)",
      "arguments": [
        "0x98346718c549Ed525201fC583796eCf2eaCC0aD5",
        "0x4B2C77d209D3405F41a037Ec6c77F7F5b8e2ca80",
        "1461501637330902918203684832716283019655932542975",
        "281474976710655"
      ],
      "transaction": {
        "from": "0x28482b1279e442f49ee76351801232d58f341cb9",
        "to": "0x000000000022d473030f116ddee9f6b43ac78ba3",
        "gas": "0x96a0",
        "value": "0x0",
        "input": "0x87517c4500000000000000000000000098346718c549ed525201fc583796ecf2eacc0ad50000000000000000000000004b2c77d209d3405f41a037ec6c77f7f5b8e2ca80000000000000000000000000ffffffffffffffffffffffffffffffffffffffff0000000000000000000000000000000000000000000000000000ffffffffffff",
        "nonce": "0x77",
        "chainId": "0x14a34"
      },
      "additionalContracts": [],
      "isFixedGasLimit": false
    },
    {
      "hash": "0xba466a426838f9b29a9efc26de5ac445e862753059af7734b0c73d317bd4111c",
      "transactionType": "CALL",
      "contractName": null,
      "contractAddress": "0x4b2c77d209d3405f41a037ec6c77f7f5b8e2ca80",
      "function": "modifyLiquidities(bytes,uint256)",
      "arguments": [
        "0x0000000000000000000000000000000000000000000000000000000000000040000000000000000000000000000000000000000000000000000000000000008000000000000000000000000000000000000000000000000000000000000000030212120000000000000000000000000000000000000000000000000000000000000000000000000000000000000000000000000000000000000000000000000300000000000000000000000000000000000000000000000000000000000000600000000000000000000000000000000000000000000000000000000000000220000000000000000000000000000000000000000000000000000000000000026000000000000000000000000000000000000000000000000000000000000001a00000000000000000000000000ea67a670a4182db6eb18a6aabc0f75195ef2efc00000000000000000000000098346718c549ed525201fc583796ecf2eacc0ad50000000000000000000000000000000000000000000000000000000000000bb8000000000000000000000000000000000000000000000000000000000000003c000000000000000000000000a04c7230d26b1e42edbdf176def36d9d9ee800c4ffffffffffffffffffffffffffffffffffffffffffffffffffffffffffffffc4000000000000000000000000000000000000000000000000000000000000003c00000000000000000000000000000000000000000000000000000000c6fd81610000000000000000000000000000000000000000000000008d8dadf544fc0000000000000000000000000000000000000000000000000000000000000098968000000000000000000000000028482b1279e442f49ee76351801232d58f341cb90000000000000000000000000000000000000000000000000000000000000180000000000000000000000000000000000000000000000000000000000000000000000000000000000000000000000000000000000000000000000000000000200000000000000000000000000ea67a670a4182db6eb18a6aabc0f75195ef2efc000000000000000000000000000000000000000000000000000000000000002000000000000000000000000098346718c549ed525201fc583796ecf2eacc0ad5",
        "1770552750"
      ],
      "transaction": {
        "from": "0x28482b1279e442f49ee76351801232d58f341cb9",
        "to": "0x4b2c77d209d3405f41a037ec6c77f7f5b8e2ca80",
        "gas": "0x8371d",
        "value": "0x0",
        "input": "0xdd46508f00000000000000000000000000000000000000000000000000000000000000400000000000000000000000000000000000000000000000000000000069887dae00000000000000000000000000000000000000000000000000000000000003400000000000000000000000000000000000000000000000000000000000000040000000000000000000000000000000000000000000000000000000000000008000000000000000000000000000000000000000000000000000000000000000030212120000000000000000000000000000000000000000000000000000000000000000000000000000000000000000000000000000000000000000000000000300000000000000000000000000000000000000000000000000000000000000600000000000000000000000000000000000000000000000000000000000000220000000000000000000000000000000000000000000000000000000000000026000000000000000000000000000000000000000000000000000000000000001a00000000000000000000000000ea67a670a4182db6eb18a6aabc0f75195ef2efc00000000000000000000000098346718c549ed525201fc583796ecf2eacc0ad50000000000000000000000000000000000000000000000000000000000000bb8000000000000000000000000000000000000000000000000000000000000003c000000000000000000000000a04c7230d26b1e42edbdf176def36d9d9ee800c4ffffffffffffffffffffffffffffffffffffffffffffffffffffffffffffffc4000000000000000000000000000000000000000000000000000000000000003c00000000000000000000000000000000000000000000000000000000c6fd81610000000000000000000000000000000000000000000000008d8dadf544fc0000000000000000000000000000000000000000000000000000000000000098968000000000000000000000000028482b1279e442f49ee76351801232d58f341cb90000000000000000000000000000000000000000000000000000000000000180000000000000000000000000000000000000000000000000000000000000000000000000000000000000000000000000000000000000000000000000000000200000000000000000000000000ea67a670a4182db6eb18a6aabc0f75195ef2efc000000000000000000000000000000000000000000000000000000000000002000000000000000000000000098346718c549ed525201fc583796ecf2eacc0ad5",
        "nonce": "0x78",
        "chainId": "0x14a34"
      },
      "additionalContracts": [],
      "isFixedGasLimit": false
    }
  ],
  "receipts": [
    {
      "status": "0x1",
      "cumulativeGasUsed": "0x43e556",
      "logs": [
        {
          "address": "0x05e73354cfdd6745c338b50bcfdfa3aa6fa03408",
          "topics": [
            "0xdd466e674ea557f56295e2d0218a125ea4b4f0f6f3307b95f85e6110838d6438",
            "0x78ad7890baf371652e992eaf29028137f36dbb0a4fd2f3f935f6aac472cb0cd6",
            "0x0000000000000000000000000ea67a670a4182db6eb18a6aabc0f75195ef2efc",
            "0x00000000000000000000000098346718c549ed525201fc583796ecf2eacc0ad5"
          ],
          "data": "0x0000000000000000000000000000000000000000000000000000000000000bb8000000000000000000000000000000000000000000000000000000000000003c000000000000000000000000a04c7230d26b1e42edbdf176def36d9d9ee800c400000000000000000000000000000000000000010000000000000000000000000000000000000000000000000000000000000000000000000000000000000000",
          "blockHash": "0x0000000000000000000000000000000000000000000000000000000000000000",
          "blockNumber": "0x23a8ee0",
          "blockTimestamp": "0x69887ca0",
          "transactionHash": "0xdc7796639fbcedf2d9eabeeade667034b0a275e1e378eae782ec4aa3953943e9",
          "transactionIndex": "0xa",
          "logIndex": "0xbf",
          "removed": false
        }
      ],
      "logsBloom": "0x00000000000800000000000000000000000000000100000000000000000000000000000100000000000000000000000000000000000000000000000000000000000000000000000000000000000000000000000000000000000000800200000000000000000000000000000000000000004000000000000000000000000000000000000004000008000000000000000000000001000000000000004000200000000000000000000000000000000000000000000000000000000800000000000000000000001000800000000000010000000000000000000000000000000000000000000000000000000000000000000000000000000000000000000000000000",
      "type": "0x2",
      "transactionHash": "0xdc7796639fbcedf2d9eabeeade667034b0a275e1e378eae782ec4aa3953943e9",
      "transactionIndex": "0xa",
      "blockHash": "0x0000000000000000000000000000000000000000000000000000000000000000",
      "blockNumber": "0x23a8ee0",
      "gasUsed": "0xca0a",
      "effectiveGasPrice": "0x124f80",
      "blobGasUsed": "0xae48",
      "from": "0x28482b1279e442f49ee76351801232d58f341cb9",
      "to": "0x05e73354cfdd6745c338b50bcfdfa3aa6fa03408",
      "contractAddress": null,
      "daFootprintGasScalar": "0x138",
      "l1BaseFeeScalar": "0x44d",
      "l1BlobBaseFee": "0x3a24049",
      "l1BlobBaseFeeScalar": "0xa118b",
      "l1Fee": "0x15c36362c",
      "l1GasPrice": "0x3d8e1df1",
      "l1GasUsed": "0x8ff"
    },
    {
      "status": "0x1",
      "cumulativeGasUsed": "0x4bb7e1",
      "logs": [
        {
          "address": "0x0ea67a670a4182db6eb18a6aabc0f75195ef2efc",
          "topics": [
            "0x8c5be1e5ebec7d5bd14f71427d1e84f3dd0314c0f7b2291e5b200ac8c7c3b925",
            "0x00000000000000000000000028482b1279e442f49ee76351801232d58f341cb9",
            "0x000000000000000000000000000000000022d473030f116ddee9f6b43ac78ba3"
          ],
          "data": "0xffffffffffffffffffffffffffffffffffffffffffffffffffffffffffffffff",
          "blockHash": "0x0000000000000000000000000000000000000000000000000000000000000000",
          "blockNumber": "0x23a8ee0",
          "blockTimestamp": "0x69887ca0",
          "transactionHash": "0x952e4b756fb21a8660490dcf7750bfcaf2bb818cacb12189c30894abf7378eb0",
          "transactionIndex": "0xc",
          "logIndex": "0xcc",
          "removed": false
        }
      ],
      "logsBloom": "0x00000000000000000000000000000002000000000000000000000000000000000000000000000000000000000000000000000000800000000000000000200000000000000000000000004000000000000000000000000800000000000000000000000000000000000000000000000000000000000000000000000000000000000000000000000000000000000000000000000000000000000000000000000000020000000000000000000000000000000000000000000000000000410000000000000000000000000000100000000000000000000000000000000000000000000010000000000000000000000000000000000000000000000000000000000000",
      "type": "0x2",
      "transactionHash": "0x952e4b756fb21a8660490dcf7750bfcaf2bb818cacb12189c30894abf7378eb0",
      "transactionIndex": "0xc",
      "blockHash": "0x0000000000000000000000000000000000000000000000000000000000000000",
      "blockNumber": "0x23a8ee0",
      "gasUsed": "0x66b1",
      "effectiveGasPrice": "0x124f80",
      "blobGasUsed": "0x79e0",
      "from": "0x28482b1279e442f49ee76351801232d58f341cb9",
      "to": "0x0ea67a670a4182db6eb18a6aabc0f75195ef2efc",
      "contractAddress": null,
      "daFootprintGasScalar": "0x138",
      "l1BaseFeeScalar": "0x44d",
      "l1BlobBaseFee": "0x3a24049",
      "l1BlobBaseFeeScalar": "0xa118b",
      "l1Fee": "0x9e091363a",
      "l1GasPrice": "0x3d8e1df1",
      "l1GasUsed": "0x640"
    },
    {
      "status": "0x1",
      "cumulativeGasUsed": "0x5b6204",
      "logs": [
        {
          "address": "0x98346718c549ed525201fc583796ecf2eacc0ad5",
          "topics": [
            "0x8c5be1e5ebec7d5bd14f71427d1e84f3dd0314c0f7b2291e5b200ac8c7c3b925",
            "0x00000000000000000000000028482b1279e442f49ee76351801232d58f341cb9",
            "0x000000000000000000000000000000000022d473030f116ddee9f6b43ac78ba3"
          ],
          "data": "0xffffffffffffffffffffffffffffffffffffffffffffffffffffffffffffffff",
          "blockHash": "0x0000000000000000000000000000000000000000000000000000000000000000",
          "blockNumber": "0x23a8ee0",
          "blockTimestamp": "0x69887ca0",
          "transactionHash": "0xb0a0463216e2c9dbd789a2c629c0ab12641f78ae97ac27ed2a2596b37d4f9c4b",
          "transactionIndex": "0x10",
          "logIndex": "0x100",
          "removed": false
        }
      ],
      "logsBloom": "0x00000000000000000000000000000002000000000000000000000000000000000000000000000000000000000000000000000000800000000000000000200000000000000000000000004000000000000000000000000800000000000000000000000000000000000000000000000000000000000000000000000000000000000000000000000000000000000000000000000000000000000000000000000000020000000000080000000000000000000000000000000000000000000000000000000000000000000000100000000000000001000000000000000000000100000010000000000000000000000000000000000000000000000000000000000000",
      "type": "0x2",
      "transactionHash": "0xb0a0463216e2c9dbd789a2c629c0ab12641f78ae97ac27ed2a2596b37d4f9c4b",
      "transactionIndex": "0x10",
      "blockHash": "0x0000000000000000000000000000000000000000000000000000000000000000",
      "blockNumber": "0x23a8ee0",
      "gasUsed": "0x66b1",
      "effectiveGasPrice": "0x124f80",
      "blobGasUsed": "0x79e0",
      "from": "0x28482b1279e442f49ee76351801232d58f341cb9",
      "to": "0x98346718c549ed525201fc583796ecf2eacc0ad5",
      "contractAddress": null,
      "daFootprintGasScalar": "0x138",
      "l1BaseFeeScalar": "0x44d",
      "l1BlobBaseFee": "0x3a24049",
      "l1BlobBaseFeeScalar": "0xa118b",
      "l1Fee": "0x3873ac8f4",
      "l1GasPrice": "0x3d8e1df1",
      "l1GasUsed": "0x640"
    },
    {
      "status": "0x1",
      "cumulativeGasUsed": "0x5bcf12",
      "logs": [
        {
          "address": "0x000000000022d473030f116ddee9f6b43ac78ba3",
          "topics": [
            "0xda9fa7c1b00402c17d0161b249b1ab8bbec047c5a52207b9c112deffd817036b",
            "0x00000000000000000000000028482b1279e442f49ee76351801232d58f341cb9",
            "0x0000000000000000000000000ea67a670a4182db6eb18a6aabc0f75195ef2efc",
            "0x0000000000000000000000004b2c77d209d3405f41a037ec6c77f7f5b8e2ca80"
          ],
          "data": "0x000000000000000000000000ffffffffffffffffffffffffffffffffffffffff0000000000000000000000000000000000000000000000000000ffffffffffff",
          "blockHash": "0x0000000000000000000000000000000000000000000000000000000000000000",
          "blockNumber": "0x23a8ee0",
          "blockTimestamp": "0x69887ca0",
          "transactionHash": "0x28195028d4fd967920ff6b4d341729c6981add5ac3788bd070024d4dbfbacb64",
          "transactionIndex": "0x11",
          "logIndex": "0x101",
          "removed": false
        }
      ],
      "logsBloom": "0x00010000000800010000000000000002000000000000000000000000000000000000000000000000000000000000000000000000800000000008000010080000000000000000000000000000000000000000000000000000000000000200000000000000000000000000000000000000000000000000000000000000000000000020000000000000000000000000000000000000000000000000000000000000000000000000000000000000000000000000000000000000000000080000000000000000000000800000100000000000000000000000000040000000000000000000000000000000000000000000000000000000000000000000000000000400",
      "type": "0x2",
      "transactionHash": "0x28195028d4fd967920ff6b4d341729c6981add5ac3788bd070024d4dbfbacb64",
      "transactionIndex": "0x11",
      "blockHash": "0x0000000000000000000000000000000000000000000000000000000000000000",
      "blockNumber": "0x23a8ee0",
      "gasUsed": "0x6d0e",
      "effectiveGasPrice": "0x124f80",
      "blobGasUsed": "0x8748",
      "from": "0x28482b1279e442f49ee76351801232d58f341cb9",
      "to": "0x000000000022d473030f116ddee9f6b43ac78ba3",
      "contractAddress": null,
      "daFootprintGasScalar": "0x138",
      "l1BaseFeeScalar": "0x44d",
      "l1BlobBaseFee": "0x3a24049",
      "l1BlobBaseFeeScalar": "0xa118b",
      "l1Fee": "0x3873ac8f4",
      "l1GasPrice": "0x3d8e1df1",
      "l1GasUsed": "0x6f5"
    },
    {
      "status": "0x1",
      "cumulativeGasUsed": "0x5c3c20",
      "logs": [
        {
          "address": "0x000000000022d473030f116ddee9f6b43ac78ba3",
          "topics": [
            "0xda9fa7c1b00402c17d0161b249b1ab8bbec047c5a52207b9c112deffd817036b",
            "0x00000000000000000000000028482b1279e442f49ee76351801232d58f341cb9",
            "0x00000000000000000000000098346718c549ed525201fc583796ecf2eacc0ad5",
            "0x0000000000000000000000004b2c77d209d3405f41a037ec6c77f7f5b8e2ca80"
          ],
          "data": "0x000000000000000000000000ffffffffffffffffffffffffffffffffffffffff0000000000000000000000000000000000000000000000000000ffffffffffff",
          "blockHash": "0x0000000000000000000000000000000000000000000000000000000000000000",
          "blockNumber": "0x23a8ee0",
          "blockTimestamp": "0x69887ca0",
          "transactionHash": "0x898308ed5159051697393169007ab85eb7b2b39f70eb042a9644a9133d30a00d",
          "transactionIndex": "0x12",
          "logIndex": "0x102",
          "removed": false
        }
      ],
      "logsBloom": "0x00010000000000010000000000000002000000000000000000000000000000000000000000000000000000000000000000000000800000000008000010080000000000000000000000000000000000000000000000000000000000000000000000000000000000000000000000000000004000000000000000000000000000000020000000000000000000000000000000000000000000000000004000000000000000000000000000000000000000000000000000000000000800080000000000000000000000000000100000000000000000000000000040000000000000000000000000000000000000000000000000000000000000000000000000000400",
      "type": "0x2",
      "transactionHash": "0x898308ed5159051697393169007ab85eb7b2b39f70eb042a9644a9133d30a00d",
      "transactionIndex": "0x12",
      "blockHash": "0x0000000000000000000000000000000000000000000000000000000000000000",
      "blockNumber": "0x23a8ee0",
      "gasUsed": "0x6d0e",
      "effectiveGasPrice": "0x124f80",
      "blobGasUsed": "0x8748",
      "from": "0x28482b1279e442f49ee76351801232d58f341cb9",
      "to": "0x000000000022d473030f116ddee9f6b43ac78ba3",
      "contractAddress": null,
      "daFootprintGasScalar": "0x138",
      "l1BaseFeeScalar": "0x44d",
      "l1BlobBaseFee": "0x3a24049",
      "l1BlobBaseFeeScalar": "0xa118b",
      "l1Fee": "0x3873ac8f4",
      "l1GasPrice": "0x3d8e1df1",
      "l1GasUsed": "0x6f5"
    },
    {
      "status": "0x1",
      "cumulativeGasUsed": "0x622ebf",
      "logs": [
        {
          "address": "0x4b2c77d209d3405f41a037ec6c77f7f5b8e2ca80",
          "topics": [
            "0xddf252ad1be2c89b69c2b068fc378daa952ba7f163c4a11628f55a4df523b3ef",
            "0x0000000000000000000000000000000000000000000000000000000000000000",
            "0x00000000000000000000000028482b1279e442f49ee76351801232d58f341cb9",
            "0x00000000000000000000000000000000000000000000000000000000000042b2"
          ],
          "data": "0x",
          "blockHash": "0x0000000000000000000000000000000000000000000000000000000000000000",
          "blockNumber": "0x23a8ee0",
          "blockTimestamp": "0x69887ca0",
          "transactionHash": "0xba466a426838f9b29a9efc26de5ac445e862753059af7734b0c73d317bd4111c",
          "transactionIndex": "0x13",
          "logIndex": "0x103",
          "removed": false
        },
        {
          "address": "0x05e73354cfdd6745c338b50bcfdfa3aa6fa03408",
          "topics": [
            "0xf208f4912782fd25c7f114ca3723a2d5dd6f3bcc3ac8db5af63baa85f711d5ec",
            "0x78ad7890baf371652e992eaf29028137f36dbb0a4fd2f3f935f6aac472cb0cd6",
            "0x0000000000000000000000004b2c77d209d3405f41a037ec6c77f7f5b8e2ca80"
          ],
          "data": "0xffffffffffffffffffffffffffffffffffffffffffffffffffffffffffffffc4000000000000000000000000000000000000000000000000000000000000003c00000000000000000000000000000000000000000000000000000000c6fd816100000000000000000000000000000000000000000000000000000000000042b2",
          "blockHash": "0x0000000000000000000000000000000000000000000000000000000000000000",
          "blockNumber": "0x23a8ee0",
          "blockTimestamp": "0x69887ca0",
          "transactionHash": "0xba466a426838f9b29a9efc26de5ac445e862753059af7734b0c73d317bd4111c",
          "transactionIndex": "0x13",
          "logIndex": "0x104",
          "removed": false
        },
        {
          "address": "0x0ea67a670a4182db6eb18a6aabc0f75195ef2efc",
          "topics": [
            "0xddf252ad1be2c89b69c2b068fc378daa952ba7f163c4a11628f55a4df523b3ef",
            "0x00000000000000000000000028482b1279e442f49ee76351801232d58f341cb9",
            "0x00000000000000000000000005e73354cfdd6745c338b50bcfdfa3aa6fa03408"
          ],
          "data": "0x0000000000000000000000000000000000000000000000000000000000989680",
          "blockHash": "0x0000000000000000000000000000000000000000000000000000000000000000",
          "blockNumber": "0x23a8ee0",
          "blockTimestamp": "0x69887ca0",
          "transactionHash": "0xba466a426838f9b29a9efc26de5ac445e862753059af7734b0c73d317bd4111c",
          "transactionIndex": "0x13",
          "logIndex": "0x105",
          "removed": false
        },
        {
          "address": "0x98346718c549ed525201fc583796ecf2eacc0ad5",
          "topics": [
            "0xddf252ad1be2c89b69c2b068fc378daa952ba7f163c4a11628f55a4df523b3ef",
            "0x00000000000000000000000028482b1279e442f49ee76351801232d58f341cb9",
            "0x00000000000000000000000005e73354cfdd6745c338b50bcfdfa3aa6fa03408"
          ],
          "data": "0x0000000000000000000000000000000000000000000000000000000000989680",
          "blockHash": "0x0000000000000000000000000000000000000000000000000000000000000000",
          "blockNumber": "0x23a8ee0",
          "blockTimestamp": "0x69887ca0",
          "transactionHash": "0xba466a426838f9b29a9efc26de5ac445e862753059af7734b0c73d317bd4111c",
          "transactionIndex": "0x13",
          "logIndex": "0x106",
          "removed": false
        }
      ],
      "logsBloom": "0x00000000000000010000000000000002000000000100000000000000000000000100000100000000000000000000000002000000800000000008000010000800000000000010000000000008000000000000000000100000000000808000000000000000020000000000000000000800000000000000000000000010000000000000000005000000000000000000000000080000000000020000000000000000000004000000080000000000000000000000000000000000000000410000000000000002001000000000100000010000000001000000000000000000000120000000000000000000000000000800000004000000000000000000000000000000",
      "type": "0x2",
      "transactionHash": "0xba466a426838f9b29a9efc26de5ac445e862753059af7734b0c73d317bd4111c",
      "transactionIndex": "0x13",
      "blockHash": "0x0000000000000000000000000000000000000000000000000000000000000000",
      "blockNumber": "0x23a8ee0",
      "gasUsed": "0x5f29f",
      "effectiveGasPrice": "0x124f80",
      "blobGasUsed": "0x14b80",
      "from": "0x28482b1279e442f49ee76351801232d58f341cb9",
      "to": "0x4b2c77d209d3405f41a037ec6c77f7f5b8e2ca80",
      "contractAddress": null,
      "daFootprintGasScalar": "0x138",
      "l1BaseFeeScalar": "0x44d",
      "l1BlobBaseFee": "0x3a24049",
      "l1BlobBaseFeeScalar": "0xa118b",
      "l1Fee": "0x3873ac8f4",
      "l1GasPrice": "0x3d8e1df1",
      "l1GasUsed": "0x110c"
    }
  ],
  "libraries": [],
  "pending": [],
  "returns": {},
  "timestamp": 1770552479,
  "chain": 84532,
  "commit": "66273a0"
}