{
  "transactions": [
    {
      "hash": "0xd35f048ea9192c938e0fd7b81a4eed6d978ba8e14aea99349849fbb784d3d7a5",
      "transactionType": "CALL",
      "contractName": null,
      "contractAddress": "0x05e73354cfdd6745c338b50bcfdfa3aa6fa03408",
      "function": "initialize((address,address,uint24,int24,address),uint160)",
      "arguments": [
        "(0x0Ea67A670a4182Db6eB18A6aAbC0f75195ef2EfC, 0x98346718c549Ed525201fC583796eCf2eaCC0aD5, 3000, 60, 0xE031283df52C41F30bfd75a45623256469f8C0c4)",
        "79228162514264337593543950336"
      ],
      "transaction": {
        "from": "0x28482b1279e442f49ee76351801232d58f341cb9",
        "to": "0x05e73354cfdd6745c338b50bcfdfa3aa6fa03408",
        "gas": "0x11721",
        "value": "0x0",
        "input": "0x6276cbbe0000000000000000000000000ea67a670a4182db6eb18a6aabc0f75195ef2efc00000000000000000000000098346718c549ed525201fc583796ecf2eacc0ad50000000000000000000000000000000000000000000000000000000000000bb8000000000000000000000000000000000000000000000000000000000000003c000000000000000000000000e031283df52c41f30bfd75a45623256469f8c0c40000000000000000000000000000000000000001000000000000000000000000",
        "nonce": "0x7a",
        "chainId": "0x14a34"
      },
      "additionalContracts": [],
      "isFixedGasLimit": false
    },
    {
      "hash": "0x93ea9763c50c0057fc9320a6cbb78a10a62d0cabd6875a8c1faf97c92ba79c42",
      "transactionType": "CALL",
      "contractName": null,
      "contractAddress": "0x0ea67a670a4182db6eb18a6aabc0f75195ef2efc",
      "function": "approve(address,uint256)",
      "arguments": [
        "0x000000000022D473030F116dDEE9F6B43aC78BA3",
        "115792089237316195423570985008687907853269984665640564039457584007913129639935"
      ],
      "transaction": {
        "from": "0x28482b1279e442f49ee76351801232d58f341cb9",
        "to": "0x0ea67a670a4182db6eb18a6aabc0f75195ef2efc",
        "gas": "0x962f",
        "value": "0x0",
        "input": "0x095ea7b3000000000000000000000000000000000022d473030f116ddee9f6b43ac78ba3ffffffffffffffffffffffffffffffffffffffffffffffffffffffffffffffff",
        "nonce": "0x7b",
        "chainId": "0x14a34"
      },
      "additionalContracts": [],
      "isFixedGasLimit": false
    },
    {
      "hash": "0x8e29623e9f58a35eb3f1910b14d8fd84d079ced97a52de882fc42c54763f68af",
      "transactionType": "CALL",
      "contractName": null,
      "contractAddress": "0x98346718c549ed525201fc583796ecf2eacc0ad5",
      "function": "approve(address,uint256)",
      "arguments": [
        "0x000000000022D473030F116dDEE9F6B43aC78BA3",
        "115792089237316195423570985008687907853269984665640564039457584007913129639935"
      ],
      "transaction": {
        "from": "0x28482b1279e442f49ee76351801232d58f341cb9",
        "to": "0x98346718c549ed525201fc583796ecf2eacc0ad5",
        "gas": "0x962f",
        "value": "0x0",
        "input": "0x095ea7b3000000000000000000000000000000000022d473030f116ddee9f6b43ac78ba3ffffffffffffffffffffffffffffffffffffffffffffffffffffffffffffffff",
        "nonce": "0x7c",
        "chainId": "0x14a34"
      },
      "additionalContracts": [],
      "isFixedGasLimit": false
    },
    {
      "hash": "0xa8e74e869b3f68bf23ddc90a8504fba480d86534a5536509beb1d76cc8c79386",
      "transactionType": "CALL",
      "contractName": null,
      "contractAddress": "0x000000000022d473030f116ddee9f6b43ac78ba3",
      "function": "approve(address,address,uint160,uint48)",
      "arguments": [
        "0x0Ea67A670a4182Db6eB18A6aAbC0f75195ef2EfC",
        "0x4B2C77d209D3405F41a037Ec6c77F7F5b8e2ca80",
        "1461501637330902918203684832716283019655932542975",
        "281474976710655"
      ],
      "transaction": {
        "from": "0x28482b1279e442f49ee76351801232d58f341cb9",
        "to": "0x000000000022d473030f116ddee9f6b43ac78ba3",
        "gas": "0x96a0",
        "value": "0x0",
        "input": "0x87517c450000000000000000000000000ea67a670a4182db6eb18a6aabc0f75195ef2efc0000000000000000000000004b2c77d209d3405f41a037ec6c77f7f5b8e2ca80000000000000000000000000ffffffffffffffffffffffffffffffffffffffff0000000000000000000000000000000000000000000000000000ffffffffffff",
        "nonce": "0x7d",
        "chainId": "0x14a34"
      },
      "additionalContracts": [],
      "isFixedGasLimit": false
    },
    {
      "hash": "0x36c52f3d9cfc31ba02a3ec31c0c86a028b031082b42460bada4b9c52ca358d40",
      "transactionType": "CALL",
      "contractName": null,
      "contractAddress": "0x000000000022d473030f116ddee9f6b43ac78ba3",
      "function": "approve(address,address,uint160,uint48)",
      "arguments": [
        "0x98346718c549Ed525201fC583796eCf2eaCC0aD5",
        "0x4B2C77d209D3405F41a037Ec6c77F7F5b8e2ca80",
        "1461501637330902918203684832716283019655932542975",
        "281474976710655"
      ],
      "transaction": {
        "from": "0x28482b1279e442f49ee76351801232d58f341cb9",
        "to": "0x000000000022d473030f116ddee9f6b43ac78ba3",
        "gas": "0x96a0",
        "value": "0x0",
        "input": "0x87517c4500000000000000000000000098346718c549ed525201fc583796ecf2eacc0ad50000000000000000000000004b2c77d209d3405f41a037ec6c77f7f5b8e2ca80000000000000000000000000ffffffffffffffffffffffffffffffffffffffff0000000000000000000000000000000000000000000000000000ffffffffffff",
        "nonce": "0x7e",
        "chainId": "0x14a34"
      },
      "additionalContracts": [],
      "isFixedGasLimit": false
    },
    {
      "hash": "0x8042a94f7df669ae7f93c07b81d3a9687c535ed62a1f4a983ed8fbed4f29af55",
      "transactionType": "CALL",
      "contractName": null,
      "contractAddress": "0x4b2c77d209d3405f41a037ec6c77f7f5b8e2ca80",
      "function": "modifyLiquidities(bytes,uint256)",
      "arguments": [
        "0x0000000000000000000000000000000000000000000000000000000000000040000000000000000000000000000000000000000000000000000000000000008000000000000000000000000000000000000000000000000000000000000000030212120000000000000000000000000000000000000000000000000000000000000000000000000000000000000000000000000000000000000000000000000300000000000000000000000000000000000000000000000000000000000000600000000000000000000000000000000000000000000000000000000000000220000000000000000000000000000000000000000000000000000000000000026000000000000000000000000000000000000000000000000000000000000001a00000000000000000000000000ea67a670a4182db6eb18a6aabc0f75195ef2efc00000000000000000000000098346718c549ed525201fc583796ecf2eacc0ad50000000000000000000000000000000000000000000000000000000000000bb8000000000000000000000000000000000000000000000000000000000000003c000000000000000000000000e031283df52c41f30bfd75a45623256469f8c0c4ffffffffffffffffffffffffffffffffffffffffffffffffffffffffffffffc4000000000000000000000000000000000000000000000000000000000000003c00000000000000000000000000000000000000000000000000000000c6fd81610000000000000000000000000000000000000000000000008d8dadf544fc0000000000000000000000000000000000000000000000000000000000000098968000000000000000000000000028482b1279e442f49ee76351801232d58f341cb90000000000000000000000000000000000000000000000000000000000000180000000000000000000000000000000000000000000000000000000000000000000000000000000000000000000000000000000000000000000000000000000200000000000000000000000000ea67a670a4182db6eb18a6aabc0f75195ef2efc000000000000000000000000000000000000000000000000000000000000002000000000000000000000000098346718c549ed525201fc583796ecf2eacc0ad5",
        "1770553142"
      ],
      "transaction": {
        "from": "0x28482b1279e442f49ee76351801232d58f341cb9",
        "to": "0x4b2c77d209d3405f41a037ec6c77f7f5b8e2ca80",
        "gas": "0x8b2e6",
        "value": "0x0",
        "input": "0xdd46508f00000000000000000000000000000000000000000000000000000000000000400000000000000000000000000000000000000000000000000000000069887f3600000000000000000000000000000000000000000000000000000000000003400000000000000000000000000000000000000000000000000000000000000040000000000000000000000000000000000000000000000000000000000000008000000000000000000000000000000000000000000000000000000000000000030212120000000000000000000000000000000000000000000000000000000000000000000000000000000000000000000000000000000000000000000000000300000000000000000000000000000000000000000000000000000000000000600000000000000000000000000000000000000000000000000000000000000220000000000000000000000000000000000000000000000000000000000000026000000000000000000000000000000000000000000000000000000000000001a00000000000000000000000000ea67a670a4182db6eb18a6aabc0f75195ef2efc00000000000000000000000098346718c549ed525201fc583796ecf2eacc0ad50000000000000000000000000000000000000000000000000000000000000bb8000000000000000000000000000000000000000000000000000000000000003c000000000000000000000000e031283df52c41f30bfd75a45623256469f8c0c4ffffffffffffffffffffffffffffffffffffffffffffffffffffffffffffffc4000000000000000000000000000000000000000000000000000000000000003c00000000000000000000000000000000000000000000000000000000c6fd81610000000000000000000000000000000000000000000000008d8dadf544fc0000000000000000000000000000000000000000000000000000000000000098968000000000000000000000000028482b1279e442f49ee76351801232d58f341cb90000000000000000000000000000000000000000000000000000000000000180000000000000000000000000000000000000000000000000000000000000000000000000000000000000000000000000000000000000000000000000000000200000000000000000000000000ea67a670a4182db6eb18a6aabc0f75195ef2efc000000000000000000000000000000000000000000000000000000000000002000000000000000000000000098346718c549ed525201fc583796ecf2eacc0ad5",
        "nonce": "0x7f",
        "chainId": "0x14a34"
      },
      "additionalContracts": [],
      "isFixedGasLimit": false
    }
  ],
  "receipts": [
    {
      "status": "0x1",
      "cumulativeGasUsed": "0x1001c33",
      "logs": [
        {
          "address": "0x05e73354cfdd6745c338b50bcfdfa3aa6fa03408",
          "topics": [
            "0xdd466e674ea557f56295e2d0218a125ea4b4f0f6f3307b95f85e6110838d6438",
            "0x5159b25a382f06c5233e11f19a87bf79378f2105bbd0ae5f85746c0db22d7c32",
            "0x0000000000000000000000000ea67a670a4182db6eb18a6aabc0f75195ef2efc",
            "0x00000000000000000000000098346718c549ed525201fc583796ecf2eacc0ad5"
          ],
          "data": "0x0000000000000000000000000000000000000000000000000000000000000bb8000000000000000000000000000000000000000000000000000000000000003c000000000000000000000000e031283df52c41f30bfd75a45623256469f8c0c400000000000000000000000000000000000000010000000000000000000000000000000000000000000000000000000000000000000000000000000000000000",
          "blockHash": "0x0000000000000000000000000000000000000000000000000000000000000000",
          "blockNumber": "0x23a8fa0",
          "blockTimestamp": "0x69887e20",
          "transactionHash": "0xd35f048ea9192c938e0fd7b81a4eed6d978ba8e14aea99349849fbb784d3d7a5",
          "transactionIndex": "0xe",
          "logIndex": "0x294",
          "removed": false
        }
      ],
      "logsBloom": "0x00000000000800000000000000000000000000000000000000000000000000000000000100000000000000000000000000000000000000000000000000000000000000000000000000000000000000000000000000001000000000000200000000000000000000000000000000000040004004000000000000000000000000000000000004000008000000000000000000000001000000000000004000200000000000000000000000000000000000000000000000000000000800000000000000000000001000800000000000000000000000000000000000000000000000000000000000000000000000000000000000000000000000000000000000000000",
      "type": "0x2",
      "transactionHash": "0xd35f048ea9192c938e0fd7b81a4eed6d978ba8e14aea99349849fbb784d3d7a5",
      "transactionIndex": "0xe",
      "blockHash": "0x0000000000000000000000000000000000000000000000000000000000000000",
      "blockNumber": "0x23a8fa0",
      "gasUsed": "0xca16",
      "effectiveGasPrice": "0x124f80",
      "blobGasUsed": "0xae48",
      "from": "0x28482b1279e442f49ee76351801232d58f341cb9",
      "to": "0x05e73354cfdd6745c338b50bcfdfa3aa6fa03408",
      "contractAddress": null,
      "daFootprintGasScalar": "0x138",
      "l1BaseFeeScalar": "0x44d",
      "l1BlobBaseFee": "0x3b044b8",
      "l1BlobBaseFeeScalar": "0xa118b",
      "l1Fee": "0x1574c7265",
      "l1GasPrice": "0x38b712d2",
      "l1GasUsed": "0x8ff"
    },
    {
      "status": "0x1",
      "cumulativeGasUsed": "0x1049841",
      "logs": [
        {
          "address": "0x98346718c549ed525201fc583796ecf2eacc0ad5",
          "topics": [
            "0x8c5be1e5ebec7d5bd14f71427d1e84f3dd0314c0f7b2291e5b200ac8c7c3b925",
            "0x00000000000000000000000028482b1279e442f49ee76351801232d58f341cb9",
            "0x000000000000000000000000000000000022d473030f116ddee9f6b43ac78ba3"
          ],
          "data": "0xffffffffffffffffffffffffffffffffffffffffffffffffffffffffffffffff",
          "blockHash": "0x0000000000000000000000000000000000000000000000000000000000000000",
          "blockNumber": "0x23a8fa0",
          "blockTimestamp": "0x69887e20",
          "transactionHash": "0x8e29623e9f58a35eb3f1910b14d8fd84d079ced97a52de882fc42c54763f68af",
          "transactionIndex": "0x12",
          "logIndex": "0x29f",
          "removed": false
        }
      ],
      "logsBloom": "0x00000000000000000000000000000002000000000000000000000000000000000000000000000000000000000000000000000000800000000000000000200000000000000000000000004000000000000000000000000800000000000000000000000000000000000000000000000000000000000000000000000000000000000000000000000000000000000000000000000000000000000000000000000000020000000000080000000000000000000000000000000000000000000000000000000000000000000000100000000000000001000000000000000000000100000010000000000000000000000000000000000000000000000000000000000000",
      "type": "0x2",
      "transactionHash": "0x8e29623e9f58a35eb3f1910b14d8fd84d079ced97a52de882fc42c54763f68af",
      "transactionIndex": "0x12",
      "blockHash": "0x0000000000000000000000000000000000000000000000000000000000000000",
      "blockNumber": "0x23a8fa0",
      "gasUsed": "0x66b1",
      "effectiveGasPrice": "0x124f80",
      "blobGasUsed": "0x79e0",
      "from": "0x28482b1279e442f49ee76351801232d58f341cb9",
      "to": "0x98346718c549ed525201fc583796ecf2eacc0ad5",
      "contractAddress": null,
      "daFootprintGasScalar": "0x138",
      "l1BaseFeeScalar": "0x44d",
      "l1BlobBaseFee": "0x3b044b8",
      "l1BlobBaseFeeScalar": "0xa118b",
      "l1Fee": "0x1574c7265",
      "l1GasPrice": "0x38b712d2",
      "l1GasUsed": "0x640"
    },
    {
      "status": "0x1",
      "cumulativeGasUsed": "0x105054f",
      "logs": [
        {
          "address": "0x000000000022d473030f116ddee9f6b43ac78ba3",
          "topics": [
            "0xda9fa7c1b00402c17d0161b249b1ab8bbec047c5a52207b9c112deffd817036b",
            "0x00000000000000000000000028482b1279e442f49ee76351801232d58f341cb9",
            "0x0000000000000000000000000ea67a670a4182db6eb18a6aabc0f75195ef2efc",
            "0x0000000000000000000000004b2c77d209d3405f41a037ec6c77f7f5b8e2ca80"
          ],
          "data": "0x000000000000000000000000ffffffffffffffffffffffffffffffffffffffff0000000000000000000000000000000000000000000000000000ffffffffffff",
          "blockHash": "0x0000000000000000000000000000000000000000000000000000000000000000",
          "blockNumber": "0x23a8fa0",
          "blockTimestamp": "0x69887e20",
          "transactionHash": "0xa8e74e869b3f68bf23ddc90a8504fba480d86534a5536509beb1d76cc8c79386",
          "transactionIndex": "0x13",
          "logIndex": "0x2a0",
          "removed": false
        }
      ],
      "logsBloom": "0x00010000000800010000000000000002000000000000000000000000000000000000000000000000000000000000000000000000800000000008000010080000000000000000000000000000000000000000000000000000000000000200000000000000000000000000000000000000000000000000000000000000000000000020000000000000000000000000000000000000000000000000000000000000000000000000000000000000000000000000000000000000000000080000000000000000000000800000100000000000000000000000000040000000000000000000000000000000000000000000000000000000000000000000000000000400",
      "type": "0x2",
      "transactionHash": "0xa8e74e869b3f68bf23ddc90a8504fba480d86534a5536509beb1d76cc8c79386",
      "transactionIndex": "0x13",
      "blockHash": "0x0000000000000000000000000000000000000000000000000000000000000000",
      "blockNumber": "0x23a8fa0",
      "gasUsed": "0x6d0e",
      "effectiveGasPrice": "0x124f80",
      "blobGasUsed": "0x8748",
      "from": "0x28482b1279e442f49ee76351801232d58f341cb9",
      "to": "0x000000000022d473030f116ddee9f6b43ac78ba3",
      "contractAddress": null,
      "daFootprintGasScalar": "0x138",
      "l1BaseFeeScalar": "0x44d",
      "l1BlobBaseFee": "0x3b044b8",
      "l1BlobBaseFeeScalar": "0xa118b",
      "l1Fee": "0x1574c7265",
      "l1GasPrice": "0x38b712d2",
      "l1GasUsed": "0x6f5"
    },
    {
      "status": "0x1",
      "cumulativeGasUsed": "0x105725d",
      "logs": [
        {
          "address": "0x000000000022d473030f116ddee9f6b43ac78ba3",
          "topics": [
            "0xda9fa7c1b00402c17d0161b249b1ab8bbec047c5a52207b9c112deffd817036b",
            "0x00000000000000000000000028482b1279e442f49ee76351801232d58f341cb9",
            "0x00000000000000000000000098346718c549ed525201fc583796ecf2eacc0ad5",
            "0x0000000000000000000000004b2c77d209d3405f41a037ec6c77f7f5b8e2ca80"
          ],
          "data": "0x000000000000000000000000ffffffffffffffffffffffffffffffffffffffff0000000000000000000000000000000000000000000000000000ffffffffffff",
          "blockHash": "0x0000000000000000000000000000000000000000000000000000000000000000",
          "blockNumber": "0x23a8fa0",
          "blockTimestamp": "0x69887e20",
          "transactionHash": "0x36c52f3d9cfc31ba02a3ec31c0c86a028b031082b42460bada4b9c52ca358d40",
          "transactionIndex": "0x14",
          "logIndex": "0x2a1",
          "removed": false
        }
      ],
      "logsBloom": "0x00010000000000010000000000000002000000000000000000000000000000000000000000000000000000000000000000000000800000000008000010080000000000000000000000000000000000000000000000000000000000000000000000000000000000000000000000000000004000000000000000000000000000000020000000000000000000000000000000000000000000000000004000000000000000000000000000000000000000000000000000000000000800080000000000000000000000000000100000000000000000000000000040000000000000000000000000000000000000000000000000000000000000000000000000000400",
      "type": "0x2",
      "transactionHash": "0x36c52f3d9cfc31ba02a3ec31c0c86a028b031082b42460bada4b9c52ca358d40",
      "transactionIndex": "0x14",
      "blockHash": "0x0000000000000000000000000000000000000000000000000000000000000000",
      "blockNumber": "0x23a8fa0",
      "gasUsed": "0x6d0e",
      "effectiveGasPrice": "0x124f80",
      "blobGasUsed": "0x8748",
      "from": "0x28482b1279e442f49ee76351801232d58f341cb9",
      "to": "0x000000000022d473030f116ddee9f6b43ac78ba3",
      "contractAddress": null,
      "daFootprintGasScalar": "0x138",
      "l1BaseFeeScalar": "0x44d",
      "l1BlobBaseFee": "0x3b044b8",
      "l1BlobBaseFeeScalar": "0xa118b",
      "l1Fee": "0x1574c7265",
      "l1GasPrice": "0x38b712d2",
      "l1GasUsed": "0x6f5"
    },
    {
      "status": "0x1",
      "cumulativeGasUsed": "0x10b6508",
      "logs": [
        {
          "address": "0x4b2c77d209d3405f41a037ec6c77f7f5b8e2ca80",
          "topics": [
            "0xddf252ad1be2c89b69c2b068fc378daa952ba7f163c4a11628f55a4df523b3ef",
            "0x0000000000000000000000000000000000000000000000000000000000000000",
            "0x00000000000000000000000028482b1279e442f49ee76351801232d58f341cb9",
            "0x00000000000000000000000000000000000000000000000000000000000042b3"
          ],
          "data": "0x",
          "blockHash": "0x0000000000000000000000000000000000000000000000000000000000000000",
          "blockNumber": "0x23a8fa0",
          "blockTimestamp": "0x69887e20",
          "transactionHash": "0x8042a94f7df669ae7f93c07b81d3a9687c535ed62a1f4a983ed8fbed4f29af55",
          "transactionIndex": "0x15",
          "logIndex": "0x2a2",
          "removed": false
        },
        {
          "address": "0x05e73354cfdd6745c338b50bcfdfa3aa6fa03408",
          "topics": [
            "0xf208f4912782fd25c7f114ca3723a2d5dd6f3bcc3ac8db5af63baa85f711d5ec",
            "0x5159b25a382f06c5233e11f19a87bf79378f2105bbd0ae5f85746c0db22d7c32",
            "0x0000000000000000000000004b2c77d209d3405f41a037ec6c77f7f5b8e2ca80"
          ],
          "data": "0xffffffffffffffffffffffffffffffffffffffffffffffffffffffffffffffc4000000000000000000000000000000000000000000000000000000000000003c00000000000000000000000000000000000000000000000000000000c6fd816100000000000000000000000000000000000000000000000000000000000042b3",
          "blockHash": "0x0000000000000000000000000000000000000000000000000000000000000000",
          "blockNumber": "0x23a8fa0",
          "blockTimestamp": "0x69887e20",
          "transactionHash": "0x8042a94f7df669ae7f93c07b81d3a9687c535ed62a1f4a983ed8fbed4f29af55",
          "transactionIndex": "0x15",
          "logIndex": "0x2a3",
          "removed": false
        },
        {
          "address": "0x0ea67a670a4182db6eb18a6aabc0f75195ef2efc",
          "topics": [
            "0xddf252ad1be2c89b69c2b068fc378daa952ba7f163c4a11628f55a4df523b3ef",
            "0x00000000000000000000000028482b1279e442f49ee76351801232d58f341cb9",
            "0x00000000000000000000000005e73354cfdd6745c338b50bcfdfa3aa6fa03408"
          ],
          "data": "0x0000000000000000000000000000000000000000000000000000000000989680",
          "blockHash": "0x0000000000000000000000000000000000000000000000000000000000000000",
          "blockNumber": "0x23a8fa0",
          "blockTimestamp": "0x69887e20",
          "transactionHash": "0x8042a94f7df669ae7f93c07b81d3a9687c535ed62a1f4a983ed8fbed4f29af55",
          "transactionIndex": "0x15",
          "logIndex": "0x2a4",
          "removed": false
        },
        {
          "address": "0x98346718c549ed525201fc583796ecf2eacc0ad5",
          "topics": [
            "0xddf252ad1be2c89b69c2b068fc378daa952ba7f163c4a11628f55a4df523b3ef",
            "0x00000000000000000000000028482b1279e442f49ee76351801232d58f341cb9",
            "0x00000000000000000000000005e73354cfdd6745c338b50bcfdfa3aa6fa03408"
          ],
          "data": "0x0000000000000000000000000000000000000000000000000000000000989680",
          "blockHash": "0x0000000000000000000000000000000000000000000000000000000000000000",
          "blockNumber": "0x23a8fa0",
          "blockTimestamp": "0x69887e20",
          "transactionHash": "0x8042a94f7df669ae7f93c07b81d3a9687c535ed62a1f4a983ed8fbed4f29af55",
          "transactionIndex": "0x15",
          "logIndex": "0x2a5",
          "removed": false
        }
      ],
      "logsBloom": "0x00000000000000050000000000000002000000000000000000000000000000000100000100000000008000000000000000000000800000000008000010000800000000000010000000000008000000000000000000101000000000008000000000000000020000000000000000000840000004000000000000000010000004000000000005000000000000000000000000000000000000000000000000000000000004000000080000000000000000000000000000000000000000410000000000000002001000000000100000000000000001000000000000000000000120000000000000000000000000000800000004000000000000000000000000000000",
      "type": "0x2",
      "transactionHash": "0x8042a94f7df669ae7f93c07b81d3a9687c535ed62a1f4a983ed8fbed4f29af55",
      "transactionIndex": "0x15",
      "blockHash": "0x0000000000000000000000000000000000000000000000000000000000000000",
      "blockNumber": "0x23a8fa0",
      "gasUsed": "0x5f2ab",
      "effectiveGasPrice": "0x124f80",
      "blobGasUsed": "0x14b80",
      "from": "0x28482b1279e442f49ee76351801232d58f341cb9",
      "to": "0x4b2c77d209d3405f41a037ec6c77f7f5b8e2ca80",
      "contractAddress": null,
      "daFootprintGasScalar": "0x138",
      "l1BaseFeeScalar": "0x44d",
      "l1BlobBaseFee": "0x3b044b8",
      "l1BlobBaseFeeScalar": "0xa118b",
      "l1Fee": "0x1574c7265",
      "l1GasPrice": "0x38b712d2",
      "l1GasUsed": "0x110c"
    }
  ],
  "libraries": [],
  "pending": [
    "0x93ea9763c50c0057fc9320a6cbb78a10a62d0cabd6875a8c1faf97c92ba79c42"
  ],
  "returns": {},
  "timestamp": 1770552863,
  "chain": 84532,
  "commit": "66273a0"
}