{
  "transactions": [
    {
      "hash": "0x313541e64a6e20a6c07ac1c97d48ad423f41945562e927991ac6656b38efd7d5",
      "transactionType": "CALL",
      "contractName": null,
      "contractAddress": "0x036cbd53842c5426634e7929541ec2318f3dcf7e",
      "function": "approve(address,uint256)",
      "arguments": [
        "0x000000000022D473030F116dDEE9F6B43aC78BA3",
        "115792089237316195423570985008687907853269984665640564039457584007913129639935"
      ],
      "transaction": {
        "from": "0x28482b1279e442f49ee76351801232d58f341cb9",
        "to": "0x036cbd53842c5426634e7929541ec2318f3dcf7e",
        "gas": "0x12ca9",
        "value": "0x0",
        "input": "0x095ea7b3000000000000000000000000000000000022d473030f116ddee9f6b43ac78ba3ffffffffffffffffffffffffffffffffffffffffffffffffffffffffffffffff",
        "nonce": "0x49",
        "chainId": "0x14a34"
      },
      "additionalContracts": [],
      "isFixedGasLimit": false
    },
    {
      "hash": "0x7c97d79168301bae63586356da577935a73d031ae650574d12e100ac9e0ac7ee",
      "transactionType": "CALL",
      "contractName": null,
      "contractAddress": "0x0ea67a670a4182db6eb18a6aabc0f75195ef2efc",
      "function": "approve(address,uint256)",
      "arguments": [
        "0x000000000022D473030F116dDEE9F6B43aC78BA3",
        "115792089237316195423570985008687907853269984665640564039457584007913129639935"
      ],
      "transaction": {
        "from": "0x28482b1279e442f49ee76351801232d58f341cb9",
        "to": "0x0ea67a670a4182db6eb18a6aabc0f75195ef2efc",
        "gas": "0xf935",
        "value": "0x0",
        "input": "0x095ea7b3000000000000000000000000000000000022d473030f116ddee9f6b43ac78ba3ffffffffffffffffffffffffffffffffffffffffffffffffffffffffffffffff",
        "nonce": "0x4a",
        "chainId": "0x14a34"
      },
      "additionalContracts": [],
      "isFixedGasLimit": false
    },
    {
      "hash": "0x203d662853084a2a3232eac773b7dc7b66b951ad25c32cc3cd6162f1e48b85f5",
      "transactionType": "CALL",
      "contractName": null,
      "contractAddress": "0x000000000022d473030f116ddee9f6b43ac78ba3",
      "function": "approve(address,address,uint160,uint48)",
      "arguments": [
        "0x036CbD53842c5426634e7929541eC2318f3dCF7e",
        "0x4B2C77d209D3405F41a037Ec6c77F7F5b8e2ca80",
        "1461501637330902918203684832716283019655932542975",
        "281474976710655"
      ],
      "transaction": {
        "from": "0x28482b1279e442f49ee76351801232d58f341cb9",
        "to": "0x000000000022d473030f116ddee9f6b43ac78ba3",
        "gas": "0x1112d",
        "value": "0x0",
        "input": "0x87517c45000000000000000000000000036cbd53842c5426634e7929541ec2318f3dcf7e0000000000000000000000004b2c77d209d3405f41a037ec6c77f7f5b8e2ca80000000000000000000000000ffffffffffffffffffffffffffffffffffffffff0000000000000000000000000000000000000000000000000000ffffffffffff",
        "nonce": "0x4b",
        "chainId": "0x14a34"
      },
      "additionalContracts": [],
      "isFixedGasLimit": false
    },
    {
      "hash": "0xeb8b19af546db25f3de8d51a9a366d34a2c4eb2bef5f4b8294866fbb7d774041",
      "transactionType": "CALL",
      "contractName": null,
      "contractAddress": "0x000000000022d473030f116ddee9f6b43ac78ba3",
      "function": "approve(address,address,uint160,uint48)",
      "arguments": [
        "0x0Ea67A670a4182Db6eB18A6aAbC0f75195ef2EfC",
        "0x4B2C77d209D3405F41a037Ec6c77F7F5b8e2ca80",
        "1461501637330902918203684832716283019655932542975",
        "281474976710655"
      ],
      "transaction": {
        "from": "0x28482b1279e442f49ee76351801232d58f341cb9",
        "to": "0x000000000022d473030f116ddee9f6b43ac78ba3",
        "gas": "0x1112d",
        "value": "0x0",
        "input": "0x87517c450000000000000000000000000ea67a670a4182db6eb18a6aabc0f75195ef2efc0000000000000000000000004b2c77d209d3405f41a037ec6c77f7f5b8e2ca80000000000000000000000000ffffffffffffffffffffffffffffffffffffffff0000000000000000000000000000000000000000000000000000ffffffffffff",
        "nonce": "0x4c",
        "chainId": "0x14a34"
      },
      "additionalContracts": [],
      "isFixedGasLimit": false
    },
    {
      "hash": "0x1eae139157e057e4b9ef17501e3e0768219a3d457e1b2443df60b405188a6210",
      "transactionType": "CALL",
      "contractName": null,
      "contractAddress": "0x4b2c77d209d3405f41a037ec6c77f7f5b8e2ca80",
      "function": "modifyLiquidities(bytes,uint256)",
      "arguments": [
        "0x0000000000000000000000000000000000000000000000000000000000000040000000000000000000000000000000000000000000000000000000000000008000000000000000000000000000000000000000000000000000000000000000030212120000000000000000000000000000000000000000000000000000000000000000000000000000000000000000000000000000000000000000000000000300000000000000000000000000000000000000000000000000000000000000600000000000000000000000000000000000000000000000000000000000000220000000000000000000000000000000000000000000000000000000000000026000000000000000000000000000000000000000000000000000000000000001a0000000000000000000000000036cbd53842c5426634e7929541ec2318f3dcf7e0000000000000000000000000ea67a670a4182db6eb18a6aabc0f75195ef2efc0000000000000000000000000000000000000000000000000000000000000bb8000000000000000000000000000000000000000000000000000000000000003c0000000000000000000000004493e9d873c049f15ca4fc1eb94044a5be3440c4ffffffffffffffffffffffffffffffffffffffffffffffffffffffffffffffc4000000000000000000000000000000000000000000000000000000000000003c00000000000000000000000000000000000000000000000000000000c6fd816100000000000000000000000000000000000000000000000000000000009896800000000000000000000000000000000000000000000000008d8dadf544fc000000000000000000000000000028482b1279e442f49ee76351801232d58f341cb9000000000000000000000000000000000000000000000000000000000000018000000000000000000000000000000000000000000000000000000000000000000000000000000000000000000000000000000000000000000000000000000020000000000000000000000000036cbd53842c5426634e7929541ec2318f3dcf7e00000000000000000000000000000000000000000000000000000000000000200000000000000000000000000ea67a670a4182db6eb18a6aabc0f75195ef2efc",
        "1770549506"
      ],
      "transaction": {
        "from": "0x28482b1279e442f49ee76351801232d58f341cb9",
        "to": "0x4b2c77d209d3405f41a037ec6c77f7f5b8e2ca80",
        "gas": "0x94f82",
        "value": "0x0",
        "input": "0xdd46508f0000000000000000000000000000000000000000000000000000000000000040000000000000000000000000000000000000000000000000000000006988710200000000000000000000000000000000000000000000000000000000000003400000000000000000000000000000000000000000000000000000000000000040000000000000000000000000000000000000000000000000000000000000008000000000000000000000000000000000000000000000000000000000000000030212120000000000000000000000000000000000000000000000000000000000000000000000000000000000000000000000000000000000000000000000000300000000000000000000000000000000000000000000000000000000000000600000000000000000000000000000000000000000000000000000000000000220000000000000000000000000000000000000000000000000000000000000026000000000000000000000000000000000000000000000000000000000000001a0000000000000000000000000036cbd53842c5426634e7929541ec2318f3dcf7e0000000000000000000000000ea67a670a4182db6eb18a6aabc0f75195ef2efc0000000000000000000000000000000000000000000000000000000000000bb8000000000000000000000000000000000000000000000000000000000000003c0000000000000000000000004493e9d873c049f15ca4fc1eb94044a5be3440c4ffffffffffffffffffffffffffffffffffffffffffffffffffffffffffffffc4000000000000000000000000000000000000000000000000000000000000003c00000000000000000000000000000000000000000000000000000000c6fd816100000000000000000000000000000000000000000000000000000000009896800000000000000000000000000000000000000000000000008d8dadf544fc000000000000000000000000000028482b1279e442f49ee76351801232d58f341cb9000000000000000000000000000000000000000000000000000000000000018000000000000000000000000000000000000000000000000000000000000000000000000000000000000000000000000000000000000000000000000000000020000000000000000000000000036cbd53842c5426634e7929541ec2318f3dcf7e00000000000000000000000000000000000000000000000000000000000000200000000000000000000000000ea67a670a4182db6eb18a6aabc0f75195ef2efc",
        "nonce": "0x4d",
        "chainId": "0x14a34"
      },
      "additionalContracts": [],
      "isFixedGasLimit": false
    }
  ],
  "receipts": [
    {
      "status": "0x1",
      "cumulativeGasUsed": "0x3e7ff2",
      "logs": [
        {
          "address": "0x036cbd53842c5426634e7929541ec2318f3dcf7e",
          "topics": [
            "0x8c5be1e5ebec7d5bd14f71427d1e84f3dd0314c0f7b2291e5b200ac8c7c3b925",
            "0x00000000000000000000000028482b1279e442f49ee76351801232d58f341cb9",
            "0x000000000000000000000000000000000022d473030f116ddee9f6b43ac78ba3"
          ],
          "data": "0xffffffffffffffffffffffffffffffffffffffffffffffffffffffffffffffff",
          "blockHash": "0x0000000000000000000000000000000000000000000000000000000000000000",
          "blockNumber": "0x23a8887",
          "blockTimestamp": "0x69886fee",
          "transactionHash": "0x313541e64a6e20a6c07ac1c97d48ad423f41945562e927991ac6656b38efd7d5",
          "transactionIndex": "0xb",
          "logIndex": "0x62",
          "removed": false
        }
      ],
      "logsBloom": "0x00000000040000000000000000000002000000000000000000000000000000000000000000000000000000000000000000000000800000000000000000200000000000000000000000004000000000000000000000000800000000000000000800000000000000000000000000000000000000000000000000000000000000000000000000000000000000000000000000000000000000000000000000000000020000000000000000000000000000000000000000000000000000000000000000000000000000000000100000000000000000000000000000000000000000000010000000000000000000000020000000000000000000000000000000000000",
      "type": "0x2",
      "transactionHash": "0x313541e64a6e20a6c07ac1c97d48ad423f41945562e927991ac6656b38efd7d5",
      "transactionIndex": "0xb",
      "blockHash": "0x0000000000000000000000000000000000000000000000000000000000000000",
      "blockNumber": "0x23a8887",
      "gasUsed": "0xd9ad",
      "effectiveGasPrice": "0x124f80",
      "blobGasUsed": "0x79e0",
      "from": "0x28482b1279e442f49ee76351801232d58f341cb9",
      "to": "0x036cbd53842c5426634e7929541ec2318f3dcf7e",
      "contractAddress": null,
      "daFootprintGasScalar": "0x138",
      "l1BaseFeeScalar": "0x44d",
      "l1BlobBaseFee": "0x33f8bb2",
      "l1BlobBaseFeeScalar": "0xa118b",
      "l1Fee": "0x1dfe18175",
      "l1GasPrice": "0x4052a5fa",
      "l1GasUsed": "0x640"
    },
    {
      "status": "0x1",
      "cumulativeGasUsed": "0x5ee5ff",
      "logs": [
        {
          "address": "0x000000000022d473030f116ddee9f6b43ac78ba3",
          "topics": [
            "0xda9fa7c1b00402c17d0161b249b1ab8bbec047c5a52207b9c112deffd817036b",
            "0x00000000000000000000000028482b1279e442f49ee76351801232d58f341cb9",
            "0x0000000000000000000000000ea67a670a4182db6eb18a6aabc0f75195ef2efc",
            "0x0000000000000000000000004b2c77d209d3405f41a037ec6c77f7f5b8e2ca80"
          ],
          "data": "0x000000000000000000000000ffffffffffffffffffffffffffffffffffffffff0000000000000000000000000000000000000000000000000000ffffffffffff",
          "blockHash": "0x0000000000000000000000000000000000000000000000000000000000000000",
          "blockNumber": "0x23a8887",
          "blockTimestamp": "0x69886fee",
          "transactionHash": "0xeb8b19af546db25f3de8d51a9a366d34a2c4eb2bef5f4b8294866fbb7d774041",
          "transactionIndex": "0x13",
          "logIndex": "0xca",
          "removed": false
        }
      ],
      "logsBloom": "0x00010000000800010000000000000002000000000000000000000000000000000000000000000000000000000000000000000000800000000008000010080000000000000000000000000000000000000000000000000000000000000200000000000000000000000000000000000000000000000000000000000000000000000020000000000000000000000000000000000000000000000000000000000000000000000000000000000000000000000000000000000000000000080000000000000000000000800000100000000000000000000000000040000000000000000000000000000000000000000000000000000000000000000000000000000400",
      "type": "0x2",
      "transactionHash": "0xeb8b19af546db25f3de8d51a9a366d34a2c4eb2bef5f4b8294866fbb7d774041",
      "transactionIndex": "0x13",
      "blockHash": "0x0000000000000000000000000000000000000000000000000000000000000000",
      "blockNumber": "0x23a8887",
      "gasUsed": "0xbaca",
      "effectiveGasPrice": "0x124f80",
      "blobGasUsed": "0x8880",
      "from": "0x28482b1279e442f49ee76351801232d58f341cb9",
      "to": "0x000000000022d473030f116ddee9f6b43ac78ba3",
      "contractAddress": null,
      "daFootprintGasScalar": "0x138",
      "l1BaseFeeScalar": "0x44d",
      "l1BlobBaseFee": "0x33f8bb2",
      "l1BlobBaseFeeScalar": "0xa118b",
      "l1Fee": "0x147a545dc",
      "l1GasPrice": "0x4052a5fa",
      "l1GasUsed": "0x702"
    },
    {
      "status": "0x1",
      "cumulativeGasUsed": "0x65a39e",
      "logs": [
        {
          "address": "0x4b2c77d209d3405f41a037ec6c77f7f5b8e2ca80",
          "topics": [
            "0xddf252ad1be2c89b69c2b068fc378daa952ba7f163c4a11628f55a4df523b3ef",
            "0x0000000000000000000000000000000000000000000000000000000000000000",
            "0x00000000000000000000000028482b1279e442f49ee76351801232d58f341cb9",
            "0x0000000000000000000000000000000000000000000000000000000000004298"
          ],
          "data": "0x",
          "blockHash": "0x0000000000000000000000000000000000000000000000000000000000000000",
          "blockNumber": "0x23a8887",
          "blockTimestamp": "0x69886fee",
          "transactionHash": "0x1eae139157e057e4b9ef17501e3e0768219a3d457e1b2443df60b405188a6210",
          "transactionIndex": "0x14",
          "logIndex": "0xcb",
          "removed": false
        },
        {
          "address": "0x05e73354cfdd6745c338b50bcfdfa3aa6fa03408",
          "topics": [
            "0xf208f4912782fd25c7f114ca3723a2d5dd6f3bcc3ac8db5af63baa85f711d5ec",
            "0xdd631b9e182bc9bef0e23059d7d9c548299d412851be0272024a6022e61a5352",
            "0x0000000000000000000000004b2c77d209d3405f41a037ec6c77f7f5b8e2ca80"
          ],
          "data": "0xffffffffffffffffffffffffffffffffffffffffffffffffffffffffffffffc4000000000000000000000000000000000000000000000000000000000000003c00000000000000000000000000000000000000000000000000000000c6fd81610000000000000000000000000000000000000000000000000000000000004298",
          "blockHash": "0x0000000000000000000000000000000000000000000000000000000000000000",
          "blockNumber": "0x23a8887",
          "blockTimestamp": "0x69886fee",
          "transactionHash": "0x1eae139157e057e4b9ef17501e3e0768219a3d457e1b2443df60b405188a6210",
          "transactionIndex": "0x14",
          "logIndex": "0xcc",
          "removed": false
        },
        {
          "address": "0x036cbd53842c5426634e7929541ec2318f3dcf7e",
          "topics": [
            "0xddf252ad1be2c89b69c2b068fc378daa952ba7f163c4a11628f55a4df523b3ef",
            "0x00000000000000000000000028482b1279e442f49ee76351801232d58f341cb9",
            "0x00000000000000000000000005e73354cfdd6745c338b50bcfdfa3aa6fa03408"
          ],
          "data": "0x0000000000000000000000000000000000000000000000000000000000989680",
          "blockHash": "0x0000000000000000000000000000000000000000000000000000000000000000",
          "blockNumber": "0x23a8887",
          "blockTimestamp": "0x69886fee",
          "transactionHash": "0x1eae139157e057e4b9ef17501e3e0768219a3d457e1b2443df60b405188a6210",
          "transactionIndex": "0x14",
          "logIndex": "0xcd",
          "removed": false
        },
        {
          "address": "0x0ea67a670a4182db6eb18a6aabc0f75195ef2efc",
          "topics": [
            "0xddf252ad1be2c89b69c2b068fc378daa952ba7f163c4a11628f55a4df523b3ef",
            "0x00000000000000000000000028482b1279e442f49ee76351801232d58f341cb9",
            "0x00000000000000000000000005e73354cfdd6745c338b50bcfdfa3aa6fa03408"
          ],
          "data": "0x0000000000000000000000000000000000000000000000000000000000989680",
          "blockHash": "0x0000000000000000000000000000000000000000000000000000000000000000",
          "blockNumber": "0x23a8887",
          "blockTimestamp": "0x69886fee",
          "transactionHash": "0x1eae139157e057e4b9ef17501e3e0768219a3d457e1b2443df60b405188a6210",
          "transactionIndex": "0x14",
          "logIndex": "0xce",
          "removed": false
        }
      ],
      "logsBloom": "0x00000000042000010000000000000002000000000000000000000000000000000100000100000000000000000000000000000000800000000008000010000800000000000010000000000008000000000000000000100000000000008000000800000000020000000000000000000800000000000000000000000010000000000000000005000000000000000000001000000000000000000800000000000000000004000000000000000000000000000000000000000000000000410000000000000002021000000000100000000000000000000000000000000000000020000000000000000000000000000820000004000080000000000000000000000000",
      "type": "0x2",
      "transactionHash": "0x1eae139157e057e4b9ef17501e3e0768219a3d457e1b2443df60b405188a6210",
      "transactionIndex": "0x14",
      "blockHash": "0x0000000000000000000000000000000000000000000000000000000000000000",
      "blockNumber": "0x23a8887",
      "gasUsed": "0x6bd9f",
      "effectiveGasPrice": "0x124f80",
      "blobGasUsed": "0x14a48",
      "from": "0x28482b1279e442f49ee76351801232d58f341cb9",
      "to": "0x4b2c77d209d3405f41a037ec6c77f7f5b8e2ca80",
      "contractAddress": null,
      "daFootprintGasScalar": "0x138",
      "l1BaseFeeScalar": "0x44d",
      "l1BlobBaseFee": "0x33f8bb2",
      "l1BlobBaseFeeScalar": "0xa118b",
      "l1Fee": "0x147a545dc",
      "l1GasPrice": "0x4052a5fa",
      "l1GasUsed": "0x10f1"
    }
  ],
  "libraries": [],
  "pending": [
    "0x7c97d79168301bae63586356da577935a73d031ae650574d12e100ac9e0ac7ee",
    "0x203d662853084a2a3232eac773b7dc7b66b951ad25c32cc3cd6162f1e48b85f5"
  ],
  "returns": {},
  "timestamp": 1770549229,
  "chain": 84532,
  "commit": "4ddc642"
}